:020000040800F2
:1000000070040020490100080B11000823100008AB
:1000100009110008B50100088F1400080000000055
:100020000000000000000000000000000F110008A8
:10003000B7010008000000000D11000811110008B0
:100040006301000863010008630100086301000800
:1000500063010008630100086301000863010008F0
:1000600063010008630100086301000863010008E0
:1000700063010008630100086301000863010008D0
:10008000630100086301000863010008000000002C
:1000900000000000000000000000000063010008F4
:1000A00063010008630100086301000863010008A0
:1000B0006111000863010008630100086301000882
:1000C0006301000863010008630100086301000880
:1000D0006301000863010008630100086301000870
:1000E0006301000863010008630100086301000860
:1000F0006301000863010008000000000000000028
:100100000000000000000000630100086301000817
:10011000630100086301000863010008630100082F
:10012000630100086301000863010008630100081F
:1001300063010008DFF80CD000F02AF800480047FF
:10014000D114000870040020064880470648004784
:10015000FEE7FEE7FEE7FEE7FEE7FEE7FEE7FEE777
:10016000FEE7FEE75D11000835010008D2B201E0AC
:1001700000F8012B491EFBD270470022F6E710B5AC
:1001800013460A4604461946FFF7F0FF204610BD05
:10019000064C074D06E0E06840F0010394E80700D4
:1001A00098471034AC42F6D3FFF7C8FF401500085B
:1001B00060150008FEE7704770B5044600F018F9B6
:1001C0000546601C02D004480078044400F010F991
:1001D000401BA042FAD370BD180000202DE9F84F53
:1001E000DFF8C891002409F1040A0AF1040B234640
:1001F0000F270BF1040ED1E00125A54006EA050208
:10020000AA4276D1DFF8A8C14E68A6EB0C08664575
:100210002BD00DDC032E34D005DC36B3012E19D0E3
:10022000022E2FD11BE0112E16D0122E2AD119E04A
:10023000B8F5881F19D006DCB8F5803F15D0B8F5A1
:10024000801F1FD111E0B8F5001F0ED0B8F5041FB4
:1002500018D10AE0CB6815E0CB681B1D12E0CB6813
:1002600008330FE0CB680C330CE08B682BB1012B0B
:100270004FF0080303D0456104E0042302E0056168
:1002800000E00023FF2A01D8064601E000F1040641
:100290004FEA840501D9A5F12005D6F8008007FAB8
:1002A00005FC28EA0C0803FA05F548EA0508C6F833
:1002B00000804D68ED0070D53E4DAE6946F00106F8
:1002C000AE61AD6924F0030605F0010500953A4DD5
:1002D00006EB050CDCF80850A607360F07FA06F8FF
:1002E00025EA0805DFF8D480404503D14FF0000827
:1002F00025E052E0DFF8C880404502D14FF0010808
:100300001DE0DFF8C080404502D14FF0020816E042
:10031000DFF8B480404502D14FF003080FE0DFF86A
:10032000AC80404502D14FF0040808E0DFF8A0801F
:10033000404502D14FF0050801E04FF0060808FAE9
:1003400006F848EA0508CCF808804D68D9F800603E
:10035000ED034D4601D5164300E096432E604D68EF
:10036000DAF80060AD03554601D5164300E0964328
:100370002E604D68DBF80060ED025D4601D5164346
:1003800000E096432E604D68DEF80060AD027546D1
:1003900001D5164300E096432E60641C0A68164699
:1003A000E2407FF429AFBDE8F88F0000000401406F
:1003B0000000111000100240000001400008014040
:1003C000000C0140001001400014014000180140E1
:1003D000001C0140C26821EA02030A4043EA0241CC
:1003E000016170470AB1016170470904FBE7000031
:1003F00001488068704700001800002002488168AA
:1004000002781144816070471800002010B5032065
:1004100000F074F8002000F005F800F023F8002048
:1004200010BD000070B50D4D04464FF47A71287868
:10043000B1FBF0F00A490968B1FBF0F000F0B2FA44
:1004400048B9102C07D200222146501E00F036F881
:1004500000206C6070BD012070BD000018000020FD
:10046000240000200C4808B5816941F00101816138
:10047000816901F001010091C16941F08051C161C0
:10048000C06900F0805000900448416821F0E061AC
:1004900041F00071416008BD0010024000000140C1
:1004A000002809DB00F01F02012191404009800073
:1004B00000F1E020C0F8001170470000F0B40E4BCE
:1004C0001B680C46C3F30223C3F10705042D00D9B2
:1004D0000425191D072901D2002300E0DB1E012697
:1004E00006FA05F1491E214099409E40761E1640AD
:1004F0003143F0BC00F0CCBF0CED00E0064900F049
:10050000070208684FF6FF03184040EA0220034A3A
:1005100010430860704700000CED00E00000FA0591
:100520002DE9F041050027D02868334C810712D50A
:10053000400703D5606840F4E060606028780007F9
:1005400003D5606840F4605060606068A96820F07E
:10055000F000084360602878C00729D06868012847
:1005600004D02168022804D0890703E021688903A8
:1005700000E08901002902DB0120BDE8F08161680B
:1005800021F0030101436160FFF732FF064641F2AB
:10059000883706E0FFF72CFF801BB84201D9032003
:1005A000EBE76068696800F00C00B0EB810FF1D1F7
:1005B0002878400705D56068E96820F4E0600843C2
:1005C00060602878000706D56068296920F46050CB
:1005D00040EAC100606000F017F86168074AC1F3A3
:1005E0000311515CC8400649086006480068FFF7DF
:1005F00019FF0020C1E7000000100240301500087C
:10060000240000201C00002013A188B00FC98DE831
:100610000F0015A10DF1100C0FC98CE80F00164A40
:100620005168164801F00C03042B10D0082B0ED192
:10063000C1F38343C9031DF803000AD5D16A04AA94
:1006400001F00F01515C0D4A5043B0FBF1F008B0CE
:1006500070470B494843FAE70203040506070809F7
:100660000A0B0C0D0E0F10100102030405060708FB
:10067000090A0B0C0D0E0F100010024000127A0038
:1006800000093D002DE9F84F040070D02078C04DDE
:10069000C00749D06868C0F38100012807D06868A6
:1006A000C0F38100022809D16868C00306D5286814
:1006B000800339D560680028E7D035E06068B0F580
:1006C000803F0BD010B1B0F5A02F11D0286820F4D6
:1006D00080302860286820F4802002E0286840F4F8
:1006E00080302860606890B1FFF782FE06460AE01D
:1006F000286840F480202860F0E700BFFFF778FE0C
:10070000801B642873D828688003F7D50CE0FFF7B6
:100710006FFE064605E000BFFFF76AFE801B6428F7
:10072000F0D828688003F7D420789A4E80074FF0DD
:1007300001094FF0000839D5686810F00C0F07D098
:100740006868C0F38100022809D16868C00306D434
:100750002868800714D52069012808D110E0206995
:10076000B0B1C6F80090FFF743FE074605E00AE186
:10077000FFF73EFEC01B0228C4D828688007F7D5C3
:100780002868616920F0F80040EAC10028600DE0A7
:10079000C6F80080FFF72CFE074604E0FFF728FEAE
:1007A000C01B022823D828688007F7D420780007C8
:1007B0002CD57948A169D9B1C0F80090FFF718FE8F
:1007C000074604E0FFF714FEC01B02280FD8686A32
:1007D0008007F7D571484FF4FA510068B0FBF1F08B
:1007E000009000BF0098411E0091FAD20EE080E018
:1007F000C0F80080FFF7FCFD074604E0FFF7F8FDB6
:10080000C01B022875D8686A8007F7D42078400793
:1008100060D5E8690027C00008D4E86940F080503E
:10082000E861E869012700F0805000905C480168A9
:10083000C90513D40168834641F480710160FFF754
:10084000D7FD824606E000BFFFF7D2FDA0EB0A000D
:1008500064284ED8DBF80000C005F5D5E068012813
:100860000AD008B1052813D0286A20F001002862B8
:10087000286A20F0040002E0286A40F001002862A3
:10088000E06841F2883B98B1FFF7B2FD82460BE089
:10089000286A40F004002862EEE700BFFFF7A8FDD9
:1008A000A0EB0A0159455AD8286A8007F6D50CE012
:1008B000FFF79EFD824605E0FFF79AFDA0EB0A01D7
:1008C00059454CD8286A8007F6D41FB1E86920F052
:1008D0008050E861E06988B36968C1F38101022949
:1008E00044D00228C6F8608004D0FFF781FD04469A
:1008F00038E034E0FFF77CFD074604E0FFF778FDC1
:10090000C01B02282BD828688001F7D4206AB0F5D4
:10091000803F05D1E86AA16820F00F000843E86233
:10092000D4E908010843696821F474110843686038
:10093000C6F86090FFF75CFD044606E025E000BFC6
:10094000FFF756FD001B022809D828688001F7D55B
:100950001BE000BFFFF74CFD001B022802D903205B
:10096000BDE8F88F28688001F4D40EE00128F7D0A4
:100970006868226A00F48031914204D1616A00F40F
:100980007010884201D00120EAE70020E8E700006B
:100990000010024000004242800442422400002035
:1009A0000070004010B5401EB0F1807F01D30120DF
:1009B00010BD4FF0E02460610F21601700F068FD6A
:1009C0000020A06107202061002010BD7047704703
:1009D00070B590F83C20012A2FD0012480F83C40CB
:1009E000022280F83D2003685A689D6822F0700654
:1009F0000A6832435A60124B02689A4211D0B2F12F
:100A0000804F0ED00F4B9A420BD00F4B9A4208D01A
:100A10000E4B9A4205D00E4B9A4202D00D4B9A4291
:100A200004D1496825F080031943916080F83D4066
:100A3000002180F83C10084670BD022070BD000007
:100A4000002C01400004004000080040000C004061
:100A5000001800400040014010B5040003D094F895
:100A60003D0010B107E0012010BD002084F83C00DB
:100A7000204600F01FF8022084F83D00211D206868
:100A800000F074FB012084F8460084F83E0084F8EE
:100A90003F0084F8400084F8410084F8420084F864
:100AA000430084F8440084F8450084F83D000020A9
:100AB00010BD000008B50068B0F1804F12D10A489F
:100AC000C16941F00101C161C069002200F001006B
:100AD000009011461C20FFF7F1FCBDE808401C20E7
:100AE000FFF7DEBC08BD00000010024070B50446F0
:100AF00090F83C00012817D0012584F83C500220D2
:100B000084F83D002068826822F0770222F47F4258
:100B100082600868502830D00DDC20284DD005DCDC
:100B200098B310283BD148E0022070BD302844D053
:100B3000402834D139E0602828D0702806D0B0F59C
:100B4000805F2CD0B0F5005F29D10AE0CB68D1E9F5
:100B50000121206800F07BFB2068816841F077016B
:100B600009E0CB68D1E90121206800F070FB206822
:100B7000816841F48041816011E0CA684968206859
:100B800000F062FC5021206807E016E0CA6849685E
:100B9000206800F06AFC6021206800F062FB84F8A5
:100BA0003D50002084F83C0070BDCA684968206848
:100BB00000F04AFC40212068EFE722680146104619
:100BC000EBE7704770B50446006801694FF0000517
:100BD000C943890715D4C168C943890711D4E91EDF
:100BE000016101202077206880698007204602D0BB
:100BF000FFF7E7FF04E000F0BDF8204600F04CF9F5
:100C0000257720680169C943490717D4C168C943DA
:100C1000490713D46FF00401016102202077206896
:100C2000806910F4407F204602D0FFF7CAFF04E03D
:100C300000F0A0F8204600F02FF925772068016920
:100C4000C943090716D4C168C943090712D46FF014
:100C500008010161042020772068C06980072046D0
:100C600002D0FFF7AEFF04E000F084F8204600F069
:100C700013F9257720680169C943C90617D4C168EB
:100C8000C943C90613D46FF0100101610820207711
:100C90002068C06910F4407F204602D0FFF791FF22
:100CA00004E000F067F8204600F0F6F825772068A9
:100CB0000169C943C90708D1C168C943C90704D13B
:100CC000891E0161204600F09FF920680169C9432F
:100CD000090609D4C168C943090605D46FF080012B
:100CE00001612046FFF772FE20680169C943490689
:100CF00009D4C168C943490605D46FF040010161B8
:100D0000204600F08DF920680169C94389060BD49B
:100D1000C168C943890607D46FF0200101612046EC
:100D2000BDE87040FFF753BE70BD000000B585B050
:100D3000002100910191029103910068B0F1804F70
:100D400011D10A48816941F00401816180696946D5
:100D500000F0040004900420009002200190039011
:100D60000348FFF73BFA05B000BD00000010024049
:100D700000080140704770B5044690F83C000D46ED
:100D800001280AD0012084F83C0042B1042A18D07E
:100D9000082A2AD00C2A4DD139E0022070BD2068E3
:100DA00000F068FA2068816941F0080181612068DB
:100DB000816921F004018161206881692A691143F8
:100DC00011E0206800F096FA2068816941F4006122
:100DD00081612068816921F4806181612068816975
:100DE0002A6941EA0221816124E0206800F0BEFA0C
:100DF0002068C16941F00801C1612068C16921F022
:100E00000401C1612068C1692A69114311E02068A9
:100E100000F0E8FA2068C16941F40061C16120680E
:100E2000C16921F48061C1612068C1692A6941EA10
:100E30000221C161002084F83C0070BD10B504009F
:100E400003D094F83D0010B107E0012010BD002050
:100E500084F83C00204600F01EF8022084F83D0093
:100E6000211D206800F082F9012084F8460084F8F2
:100E70003E0084F83F0084F8400084F8410084F884
:100E8000420084F8430084F8440084F8450084F864
:100E90003D00002010BD704730B51A48C1890129B6
:100EA0002ED1024645895388002101249288012DC4
:100EB00003D08589012D10D01EE08382058A6D1C28
:100EC0000582058A502D17D941810182934202D2B1
:100ED000C1881944818284810EE08282458A6D1C1A
:100EE0004582458A502D07D9818141829A4202D993
:100EF0000189511A818244810349808A0968C86343
:100F000030BD0000000000202800002010B504467D
:100F1000022249B1042912D008291CD094F84100BA
:100F2000012823D0012010BD94F83E000128F9D1FA
:100F300084F83E202068C26842F0020209E094F87A
:100F40003F000128EED184F83F202068C26842F0BB
:100F50000402C2600EE094F840000128E2D184F857
:100F600040202068C26842F00802F2E784F841207D
:100F70000C2933D00122206800F05CF91A4920685E
:100F80001A4A884207D0904205D0194B984202D0A5
:100F9000184B984203D1436C43F4004343642068E8
:100FA000884210D0B0F1804F0DD0134988420AD04A
:100FB0001249884207D01249884204D01149884218
:100FC00001D0904204D1816801F00701062903D0C5
:100FD000016841F001010160002010BD2068C26875
:100FE00042F01002B5E70000002C01400040014033
:100FF0000044014000480140000400400008004057
:10100000000C0040001800400068B0F1804F03D190
:1010100001210248FFF7DEB97047000000100140CF
:101020007047FEE730B585B000241748009401945E
:1010300002940394816941F010018161816901F09A
:1010400010010491816941F020018161816901F001
:1010500020010491816941F00401816180690B4D97
:1010600000F004000122049011462846FFF7BAF967
:101070000320012103900091CDE90114694628461F
:10108000FFF7ACF805B030BD001002400010014081
:1010900010B58EB000240794089409940A940B9418
:1010A0001C2168460C94FFF768F816484FF0804101
:1010B00001600521C0E9011442F21071C0E9031476
:1010C0008461FFF7C9FC4FF48050079007A90D48D1
:1010D000FFF70CFD0B48FFF7B1FE0B940BA9094875
:1010E0000C94FFF775FC6020CDE9000402940822FF
:1010F000694604480494FFF73EFE0248FFF716FED7
:101100000EB010BD28000020FEE770477047704702
:10111000FFF774B930B58FB028216846FFF72DF876
:1011200014210AA8FFF729F8022501200490009550
:101130001020059000240004CDE90840079568467A
:10114000FFF7A0FA0F200A90CDE90B540D9400216F
:101150000AA80E94FFF7E4F90FB030BD7047000005
:101160000148FFF72FBD0000280000202DE9F043C3
:101170000268264B264C274D274E4FF08049984257
:1011800007D0484505D0A04203D0A84201D0B042C4
:1011900003D122F070074A683A43204FDFF880C03D
:1011A000DFF88080984216D0484514D0A04212D073
:1011B000A84210D0B0420ED01B4CA0420BD01B4C0A
:1011C000A04208D01A4CA04205D0B84203D06045D6
:1011D00001D0404503D122F44074CA6822434C69CF
:1011E00022F08002224302608A68C2620A68826238
:1011F000984205D0B84203D0604501D0404501D1A6
:101200000969016301214161BDE8F083002C0140BF
:101210000004004000080040000C00400040014075
:10122000004401400048014000180040001C0040FC
:101230000020004010B501F01F030121046A99400D
:101240008C430462016A9A401143016210BD10B5DB
:10125000846842EA032224F47F440A4322438260E2
:1012600010BD826822F070020A4342F007018160DB
:1012700070470000F0B5026A22F001020262036AC0
:1012800042688469184E24F073050C68174F2C438C
:1012900023F002058B68DFF858C02B43114DA8429C
:1012A00005D0B04203D0B84201D0604506D123F04A
:1012B000080ECB6843EA0E0323F00403A84205D0CE
:1012C000B04203D0B84201D0604505D14D6922F447
:1012D000407215438A692A434260846149684163C8
:1012E0000362F0BD002C0140004001400044014079
:1012F0000048014030B5026A22F010020262026A20
:10130000436884690D6824F4E64444EA05248D6842
:1013100022F0200242EA0512104DA84207D1CD6802
:1013200022F0800242EA051222F0400208E00C4D51
:10133000A84205D00B4DA84202D00B4DA84207D1C0
:101340004D6923F4406343EA85038D6943EA8503CD
:101350004360846149688163026230BD002C0140B2
:1013600000400140004401400048014030B5026A9D
:1013700022F480720262036A4268C46923F4007333
:1013800024F073050C682C438D6843EA0523114D46
:10139000A84207D1CD6823F4006343EA052323F470
:1013A000806308E00C4DA84205D00C4DA84202D045
:1013B0000B4DA84207D14D6922F4405242EA051272
:1013C0008D6942EA05124260C4614968C1630362E3
:1013D00030BD0000002C01400040014000440140AD
:1013E0000048014030B5026A22F480520262046A69
:1013F0004268C3690D6823F4E64343EA05238D6818
:1014000024F4005444EA05340B4DA84208D00B4D97
:10141000A84205D00A4DA84202D00A4DA84204D1E4
:101420004D6922F4804242EA85124260C3614968F4
:101430000164046230BD0000002C01400040014006
:10144000004401400048014010B5036A046A24F0DA
:1014500001040462846924F0F00444EA021423F0D5
:101460000A020A438461026210BD10B5036A23F0C8
:10147000100303628369046A23F4704343EA02326F
:1014800024F0A00343EA01118261016210BDFEE76E
:101490000907090E002804DB00F1E02080F80014A1
:1014A000704700F00F0000F1E02080F8141D704735
:1014B00002E008C8121F08C1002AFAD1704770471D
:1014C000002001E001C1121F002AFBD1704700007B
:1014D000154C6088A082FEF799FFFFF71BFEFFF70F
:1014E000A1FDFFF7D5FD114D20882968C8630821AB
:1014F0002846FFF70BFD40F6B8363046FEF75CFE97
:1015000029682088C8633046FEF756FE20884FF4CD
:101510007A768008A0823046FEF74EFEA08A2968BF
:101520008000C863F7E700000000002028000020CA
:101530000000000000000000010203040607080983
:10154000601500080000002028000000B01400080A
:10155000881500082800002048040000C014000876
:10156000F8118813581B640064000000000000009C
:10157000000000000000000001000000100000005A
:08158000000000000024F4004B
:0400000508000135B9
:00000001FF
