:020000040800F2
:10000000A8040020490100082F120008BB110008B5
:100010002D120008B5010008DB14000800000000E4
:100020000000000000000000000000003312000883
:10003000C501000800000000311200083512000858
:100040006301000863010008630100086301000800
:1000500063010008630100086301000863010008F0
:1000600063010008630100086301000863010008E0
:1000700063010008630100086301000863010008D0
:10008000630100086301000863010008000000002C
:1000900000000000000000000000000063010008F4
:1000A00063010008630100086301000863010008A0
:1000B0006301000863010008630100086301000890
:1000C0006301000863010008630100086301000880
:1000D0006301000863010008630100086301000870
:1000E0006301000863010008630100086301000860
:1000F0006301000863010008000000000000000028
:100100000000000000000000630100086301000817
:1001100085120008630100086301000863010008FC
:100120006301000863010008B901000863010008C9
:1001300063010008DFF80CD000F02AF800480047FF
:100140001D150008A80400200648804706480047FF
:10015000FEE7FEE7FEE7FEE7FEE7FEE7FEE7FEE777
:10016000FEE7FEE78112000835010008D2B201E087
:1001700000F8012B491EFBD270470022F6E710B5AC
:1001800013460A4604461946FFF7F0FF204610BD05
:10019000064C074D06E0E06840F0010394E80700D4
:1001A00098471034AC42F6D3FFF7C8FFB4150008E7
:1001B000D4150008FEE70000014800F0C1B80000B7
:1001C000600000207047704710B590F821100022A1
:1001D000022905D00421816380F82020012010BD70
:1001E00001680B6823F00E030B6001680B6823F0B5
:1001F00001030B6090F84030C46B012101FA03F356
:10020000636080F8211080F82020104610BD0000A7
:100210002DE9F05F90F821100024022903D0042179
:100220008163012485E001680A6822F00E020A60F9
:1002300001680A6822F001020A603F4E3E4FB21583
:10024000DFF8F4C0DFF8F090DFF8ECA0DFF8E8B0FA
:10025000DFF8E4E00168783F13011502ACF1640CAB
:10026000A9F15009AAF13C0AABF1280BAEF1140E2A
:100270004FF48018B14227D9B9420ED0614512D04F
:1002800049451DD0514518D0594518D0714501D167
:10029000424615E0294EB14201D1012210E0274E1D
:1002A0001436B14201D110220AE0244E2836B14260
:1002B00006D0224A3C32914201D11A4600E02A4639
:1002C0001E49091F0A602BE0B94213D0614517D0BF
:1002D000494522D051451DD059451DD0714501D108
:1002E00042461AE0B14202D14FF0807215E0134E3F
:1002F000B14201D1012210E0104E1436B14201D1B9
:1003000010220AE00D4E2836B14206D00B4A3C328C
:10031000914201D11A4600E02A46074980394A60D5
:10032000012180F82110002180F82010416B01B1DB
:1003300088472046BDE8F09F800002400804024044
:100340002DE9F05FC16B0A6801680B68046C4FF01F
:10035000040808FA04F8844D844E854FDFF814C26F
:10036000DFF81492DFF814A2DFF814B2DFF814E219
:1003700018EA020F65D05FEA437862D50A689206F0
:1003800003D40A6822F004020A60DFF8F0814FF417
:100390008062016808F1140813011402414524D950
:1003A000A9420DD0B1420FD0B9421AD0614515D043
:1003B000494515D0514501D1120312E0594501D1EB
:1003C00004220EE0714501D140220AE06D4D143542
:1003D000A94206D06B4A2832914201D11A4600E068
:1003E00022466749091F0A6029E0A94213D0B14299
:1003F00015D0B94220D061451BD049451BD051458D
:1004000002D14FF4800217E0414502D14FF08062E3
:1004100012E0594501D104220EE0714501D140227C
:100420000AE0584D1435A94206D0564A2832914266
:1004300001D11A4600E022464B4908394A60C16A98
:1004400071E04FF0020808FA04F818EA020F70D0C1
:100450005FEA83786DD50A68920606D40A6822F0AE
:100460000A020A60012180F82110DFF810814FF4A0
:100470000072016808F1140813011402414524D9DF
:10048000A9420DD0B1420FD0B9421AD0614515D062
:10049000494515D0514501D1120312E0594501D10A
:1004A00002220EE0714501D120220AE0354D1435BB
:1004B000A94206D0334A2832914201D11A4600E0BF
:1004C00022462F49091F0A6029E0A94213D0B142F0
:1004D00015D0B94220D061451BD049451BD05145AC
:1004E00002D14FF4001217E0414502D14FF00072E3
:1004F00012E0594501D102220EE0714501D12022BE
:100500000AE0204D1435A94206D01E4A28329142F5
:1005100001D11A4600E02246134908394A600021F9
:1005200080F82010816A00291CD0BDE8F05F0847E0
:10053000FFE70825A540154214D01A0712D50A680E
:1005400022F00E020A6090F84020C36B012101FAEC
:1005500002F25A60816380F82110002180F8201097
:10056000016BE0E7BDE8F09F080002401C0002407C
:100570003000024044000240580002406C0002403B
:10058000080402401C04024030B560B11A4B0268F6
:1005900014219A4209D2194B1344B3FBF1F189009B
:1005A000016417490AE0012030BD134B5B4213443C
:1005B000B3FBF1F1890001640F490839C1630221DD
:1005C00080F82110136843F6F0718B43F0E90114B1
:1005D0002143D0E902452C43214304692143446966
:1005E00021438469214319431160002141630122A1
:1005F00042770177084630BD08040240F8FFFDBF8E
:100600000000024070B5044600F018F90546601C71
:1006100002D004480078044400F010F9401BA042C6
:10062000FAD370BD000000202DE9F84FDFF8C89123
:10063000002409F1040A0AF1040B23460F270BF1E9
:10064000040ED1E00125A54006EA0502AA4276D1B2
:10065000DFF8A8C14E68A6EB0C0866452BD00DDC70
:10066000032E34D005DC36B3012E19D0022E2FD143
:100670001BE0112E16D0122E2AD119E0B8F5881FD2
:1006800019D006DCB8F5803F15D0B8F5801F1FD112
:1006900011E0B8F5001F0ED0B8F5041F18D10AE01C
:1006A000CB6815E0CB681B1D12E0CB6808330FE068
:1006B000CB680C330CE08B682BB1012B4FF0080397
:1006C00003D0456104E0042302E0056100E000235B
:1006D000FF2A01D8064601E000F104064FEA84052E
:1006E00001D9A5F12005D6F8008007FA05FC28EA13
:1006F0000C0803FA05F548EA0508C6F800804D68BD
:10070000ED0070D53E4DAE6946F00106AE61AD69B3
:1007100024F0030605F0010500953A4D06EB050CA3
:10072000DCF80850A607360F07FA06F825EA080590
:10073000DFF8D480404503D14FF0000825E052E0B7
:10074000DFF8C880404502D14FF001081DE0DFF816
:10075000C080404502D14FF0020816E0DFF8B480B7
:10076000404502D14FF003080FE0DFF8AC80404570
:1007700002D14FF0040808E0DFF8A080404502D124
:100780004FF0050801E04FF0060808FA06F848EABD
:100790000508CCF808804D68D9F80060ED034D4697
:1007A00001D5164300E096432E604D68DAF80060EC
:1007B000AD03554601D5164300E096432E604D68C3
:1007C000DBF80060ED025D4601D5164300E096437C
:1007D0002E604D68DEF80060AD02754601D5164307
:1007E00000E096432E60641C0A681646E2407FF4DF
:1007F00029AFBDE8F88F000000040140000011108F
:10080000001002400000014000080140000C0140BF
:10081000001001400014014000180140001C01407C
:10082000C26821EA02030A4043EA024101617047BB
:100830000AB1016170470904FBE7000001488068C4
:1008400070470000000000200248816802781144CF
:10085000816070470000002010B5032000F074F89C
:10086000002000F005F800F023F8002010BD000083
:1008700070B50D4D04464FF47A712878B1FBF0F055
:100880000A490968B1FBF0F000F0D2FA48B9102C1F
:1008900007D200222146501E00F036F800206C607E
:1008A00070BD012070BD0000000000200C00002081
:1008B0000C4808B5816941F001018161816901F04D
:1008C00001010091C16941F08051C161C06900F02E
:1008D000805000900448416821F0E06141F00071CF
:1008E000416008BD0010024000000140002809DB03
:1008F00000F01F02012191404009800000F1E0203A
:10090000C0F8001170470000F0B40E4B1B680C4695
:10091000C3F30223C3F10705042D00D90425191DD3
:10092000072901D2002300E0DB1E012606FA05F1AB
:10093000491E214099409E40761E16403143F0BC2E
:1009400000F0CCBD0CED00E0064900F0070208689D
:100950004FF6FF03184040EA0220034A10430860A4
:10096000704700000CED00E00000FA052DE9F041B1
:10097000050027D02868334C810712D5400703D5DE
:10098000606840F4E06060602878000703D5606824
:1009900040F4605060606068A96820F0F00008438F
:1009A00060602878C00729D06868012804D02168D1
:1009B000022804D0890703E02168890300E0890147
:1009C000002902DB0120BDE8F081616821F003010C
:1009D00001436160FFF732FF064641F2883706E0C7
:1009E000FFF72CFF801BB84201D90320EBE76068BA
:1009F000696800F00C00B0EB810FF1D12878400756
:100A000005D56068E96820F4E060084360602878F4
:100A1000000706D56068296920F4605040EAC100EB
:100A2000606000F037F86168074AC1F30311515C58
:100A3000C8400649086006480068FFF719FF002013
:100A4000C1E70000001002409C1500080C000020C7
:100A5000040000200448054900684968044AC1F3BD
:100A60000221515CC84070470C0000200010024079
:100A7000AC1500080448054900684968044AC1F3F8
:100A8000C221515CC84070470C0000200010024099
:100A9000AC15000813A188B00FC98DE80F0015A18F
:100AA0000DF1100C0FC98CE80F00164A516816485A
:100AB00001F00C03042B10D0082B0ED1C1F383439B
:100AC000C9031DF803000AD5D16A04AA01F00F0179
:100AD000515C0D4A5043B0FBF1F008B070470B4930
:100AE0004843FAE702030405060708090A0B0C0D40
:100AF0000E0F10100102030405060708090A0B0C6B
:100B00000D0E0F100010024000127A0000093D0087
:100B10002DE9F84F040070D02078C04DC00749D0AF
:100B20006868C0F38100012807D06868C0F38100BD
:100B3000022809D16868C00306D52868800339D522
:100B400060680028E7D035E06068B0F5803F0BD0E2
:100B500010B1B0F5A02F11D0286820F480302860A3
:100B6000286820F4802002E0286840F48030286063
:100B7000606890B1FFF762FE06460AE0286840F41C
:100B800080202860F0E700BFFFF758FE801B642834
:100B900073D828688003F7D50CE0FFF74FFE0646B0
:100BA00005E000BFFFF74AFE801B6428F0D82868E4
:100BB0008003F7D420789A4E80074FF001094FF058
:100BC000000839D5686810F00C0F07D06868C0F3CA
:100BD0008100022809D16868C00306D4286880070C
:100BE00014D52069012808D110E02069B0B1C6F8F9
:100BF0000090FFF723FE074605E00AE1FFF71EFE1F
:100C0000C01B0228C4D828688007F7D52868616906
:100C100020F0F80040EAC10028600DE0C6F800802E
:100C2000FFF70CFE074604E0FFF708FEC01B022892
:100C300023D828688007F7D4207800072CD5794876
:100C4000A169D9B1C0F80090FFF7F8FD074604E0AC
:100C5000FFF7F4FDC01B02280FD8686A8007F7D59C
:100C600071484FF4FA510068B0FBF1F0009000BFFA
:100C70000098411E0091FAD20EE080E0C0F800809A
:100C8000FFF7DCFD074604E0FFF7D8FDC01B022894
:100C900075D8686A8007F7D42078400760D5E8697E
:100CA0000027C00008D4E86940F08050E861E86996
:100CB000012700F0805000905C480168C90513D4FA
:100CC0000168834641F480710160FFF7B7FD8246F9
:100CD00006E000BFFFF7B2FDA0EB0A0064284ED883
:100CE000DBF80000C005F5D5E06801280AD008B19E
:100CF000052813D0286A20F001002862286A20F015
:100D0000040002E0286A40F001002862E06841F235
:100D1000883B98B1FFF792FD82460BE0286A40F0CD
:100D200004002862EEE700BFFFF788FDA0EB0A0190
:100D300059455AD8286A8007F6D50CE0FFF77EFDA2
:100D4000824605E0FFF77AFDA0EB0A0159454CD831
:100D5000286A8007F6D41FB1E86920F08050E86166
:100D6000E06988B36968C1F38101022944D002288F
:100D7000C6F8608004D0FFF761FD044638E034E037
:100D8000FFF75CFD074604E0FFF758FDC01B022893
:100D90002BD828688001F7D4206AB0F5803F05D1B0
:100DA000E86AA16820F00F000843E862D4E908016E
:100DB0000843696821F4741108436860C6F86090BC
:100DC000FFF73CFD044606E025E000BFFFF736FDD7
:100DD000001B022809D828688001F7D51BE000BF56
:100DE000FFF72CFD001B022802D90320BDE8F88F75
:100DF00028688001F4D40EE00128F7D06868226AE0
:100E000000F48031914204D1616A00F4701088428C
:100E100001D00120EAE70020E8E7000000100240CE
:100E200000004242800442420C000020007000405A
:100E300010B5401EB0F1807F01D3012010BD4FF0EE
:100E4000E02460610F21601700F048FB0020A061E2
:100E500007202061002010BD70477047F8B5026878
:100E600004461068D168536910F00F0F4FF0000569
:100E700053D003F0010601F4907737435FD0C207E7
:100E800005D0CA0503D5226C42F001022264420754
:100E900005D5DA0703D0226C42F0020222648207F1
:100EA00005D5DA0703D0226C42F00402226402075F
:100EB00007D501F02002324303D0226C42F0080231
:100EC0002264226C002A34D0800604D5880602D51C
:100ED000204600F0FDF920684069216CC0F38010C5
:100EE000090700D430B3204600F0DAF920684169E0
:100EF00049061BD5416921F040014161A06BA8B1B1
:100F000058494163A06BFFF783F9002811D0A06B0B
:100F1000416B01B0BDE8F040084783060FD58B0652
:100F20000DD52046BDE8F84000F0D2B92046FFF7C5
:100F300094FFF8BD2046FFF790FF2564F8BD266BAF
:100F40002023012E52D1C60650D5CE064ED51068AC
:100F500050680090506940062AD5A16B0868406827
:100F60000004000CEAD0A68D8642E7D9E0858869A6
:100F7000202818D0D06820F48070D06020684169A3
:100F800021F0010141612068416921F04001416186
:100F900084F83E3025632068C16821F01001C160EB
:100FA000A06BFFF711F9A08DE18D401A81B219E015
:100FB000A08DE18D401A81B2E08D0028BED00029BD
:100FC000BCD0D06820F49070D0602068426922F0D4
:100FD0000102426184F83E3025632068C26822F035
:100FE0001002C2602046FFF737FFF8BD05062BD57B
:100FF0000D0629D594F83D002128F6D1A068B0F55A
:10100000805F01D12069B0B1206A411C2162216852
:1010100000784860E08C401E0004000CE084E4D1BD
:101020002068C16821F08001C1602068C16841F07A
:101030004001C160F8BD206A0088C0F3080050601C
:10104000206A801C2062E5E74006F3D54806F1D50A
:10105000D168204621F04001D16084F83D3000F095
:10106000ABF8F8BD9112000870B5040004D094F8F4
:101070003D00002510B106E0012070BD84F83C5011
:10108000204600F023F8242084F83D002068C16841
:1010900021F40051C160204600F076F92068016912
:1010A00021F4904101612068416921F02A014161E8
:1010B0002068C16841F40051C1602564202084F893
:1010C0003D0084F83E00002070BD000070B586B081
:1010D0000025064600950195029503950068224972
:1010E00088423ED12149C86940F40020C861C869DE
:1010F00000F400200490886940F01000886188693D
:101100001B4C00F010000490081500900220019084
:101110000320039069462046FFF786FAE014CDE9E4
:101120000005694620460295FFF77EFA124C1148E9
:10113000C4E900058020C4E9025025616561A5610C
:101140002046E561FFF720FA08B1FFF73CF8B463E9
:101150000022114634206662FFF7D6FB3420FFF7E9
:10116000C5FB06B070BD0000004C004000100240FE
:1011700000100140300402406000002090F83E3032
:10118000202B0ED159B152B190F83C30012B08D030
:10119000012380F83C300023036300F083B9012071
:1011A000704702207047000002490422A1F1440068
:1011B000FFF7E4BF540000207047FEE730B585B06C
:1011C000002418480094019402940394816941F02A
:1011D00010018161816901F010010491816941F080
:1011E00020018161816901F020010491816941F050
:1011F0000401816180690C4D00F00400049000221C
:101200000F212846FFF714FB0F2000900120CDE9A5
:1012100001040220039069462846FFF705FA05B04D
:1012200030BD00000010024000100140FEE7704792
:1012300070477047FFF708BB30B58FB0282168466C
:10124000FEF79BFF14210AA8FEF797FF0225012055
:10125000049000951020059000240004CDE908407A
:1012600007956846FFF754FC0F200A90CDE90B5410
:101270000D9400210AA80E94FFF778FB0FB030BD43
:10128000704700000148FFF7E9BD00001000002092
:1012900010B5406A0021C185C184FFF7DEFD10BD95
:1012A0000168CA6822F49072CA6001684A6922F033
:1012B00001024A61016B012904D10168CA6822F068
:1012C0001002CA60202180F83E100021016370479F
:1012D00008B590F83E10222901D0022008BD82688E
:1012E0004FF480539A4201D1016921B1816A9A4237
:1012F0001BD04AB10AE00268816A5268C2F3080250
:101300000A80816A891C08E0026972B10268526829
:1013100002F07F020A70816A491C8162C18D491EF8
:101320000904090CC18503D019E002685268F1E78D
:101330000168CA6822F02002CA600168CA6822F403
:101340008072CA6001684A6922F001024A61202164
:1013500080F83E10016B012903D0FFF725FF002024
:1013600008BD002101630168CA6822F01002CA604A
:1013700001680A68D20602D50A6849680091818D21
:10138000FFF76AFDEBE700002DE9F0410446006835
:101390000169E26821F44051114301612169A068AB
:1013A000E26908436169114322680843D16849F240
:1013B0000C6399430143D16020684169A26921F41B
:1013C00040711143416136492068884202D1FFF7DC
:1013D00051FB01E0FFF73EFB0246E3696420322146
:1013E000B3F5004F02EBC20303EB021362682BD08C
:1013F0009200B3FBF2F5B5FBF0F5B3FBF2F66FF03C
:1014000018077D4306EB8505B3FBF2F601EB0515E6
:10141000B5FBF0F5B6FBF0F605F0F00505EB0615AB
:10142000B3FBF2F6B3FBF2F2B2FBF0F27A4306EB57
:10143000820201EB0211B1FBF0F000F00F00216815
:1014400028448860BDE8F0815200B3FBF2F6B6FB99
:10145000F0F6B3FBF2F7B3FBF2F56FF0180C06FBF6
:101460000CF607EB860601EBC606B5FBF0F5B6FBFE
:10147000F0F62D0106F0F80605EB4605B3FBF2F693
:10148000B3FBF2F2B2FBF0F202FB0CF206EB8202CB
:1014900001EBC201B1FBF0F000F00700CFE7000064
:1014A0000038014081628285C285002101642222C8
:1014B00080F83E2080F83C100168CA6842F48072CF
:1014C000CA6001684A6942F001024A610068C16865
:1014D00041F02001C16000207047FEE70907090EB6
:1014E000002804DB00F1E02080F80014704700F0D1
:1014F0000F0000F1E02080F8141D704702E008C8DA
:10150000121F08C1002AFAD170477047002001E07D
:1015100001C1121F002AFBD17047000008B5FFF778
:101520009BF9FFF789FEFFF749FE1848416941F032
:10153000020141614069002200F002000090114662
:101540003A20FFF7E1F93A20FFF7D0F911481049A6
:101550000C2201604FF4E131416000218160C160E3
:10156000C0E904128161C161FFF77EFD09490422CF
:1015700044310848FFF702FE074C01212046FFF7DF
:101580004FF96420FFF73EF8F7E700000010024033
:10159000004C00401000002000100140000000003E
:1015A0000000000001020304060708090000000013
:1015B00001020304D4150008000000201000000000
:1015C000FC140008E4150008100000209804000036
:1015D0000C150008010000001000000000000000D1
:0415E0000024F400EF
:0400000508000135B9
:00000001FF
