:020000040800F2
:10000000A004002049010008D70E00080F0E0008C8
:10001000D50E0008B50100087710000800000000A8
:10002000000000000000000000000000DB0E0008DF
:10003000B701000800000000D90E0008DD0E00081E
:100040006301000863010008630100086301000800
:1000500063010008630100086301000863010008F0
:1000600063010008630100086301000863010008E0
:1000700063010008630100086301000863010008D0
:10008000630100086301000863010008000000002C
:1000900000000000000000000000000063010008F4
:1000A00063010008630100086301000863010008A0
:1000B000630100082D0F00086301000863010008B8
:1000C0006301000863010008630100086301000880
:1000D0006301000863010008630100086301000870
:1000E0006301000863010008630100086301000860
:1000F0006301000863010008000000000000000028
:100100000000000000000000630100086301000817
:100110006301000863010008390F0008630100084B
:10012000630100086301000863010008630100081F
:1001300063010008DFF80CD000F02AF800480047FF
:10014000B9100008A0040020064880470648004770
:10015000FEE7FEE7FEE7FEE7FEE7FEE7FEE7FEE777
:10016000FEE7FEE7290F000835010008D2B201E0E2
:1001700000F8012B491EFBD270470022F6E710B5AC
:1001800013460A4604461946FFF7F0FF204610BD05
:10019000064C074D06E0E06840F0010394E80700D4
:1001A00098471034AC42F6D3FFF7C8FF4811000857
:1001B00068110008FEE7704770B5044600F018F9B2
:1001C0000546601C02D004480078044400F010F991
:1001D000401BA042FAD370BD000000202DE9F84F6B
:1001E000DFF8C891002409F1040A0AF1040B234640
:1001F0000F270BF1040ED1E00125A54006EA050208
:10020000AA4276D1DFF8A8C14E68A6EB0C08664575
:100210002BD00DDC032E34D005DC36B3012E19D0E3
:10022000022E2FD11BE0112E16D0122E2AD119E04A
:10023000B8F5881F19D006DCB8F5803F15D0B8F5A1
:10024000801F1FD111E0B8F5001F0ED0B8F5041FB4
:1002500018D10AE0CB6815E0CB681B1D12E0CB6813
:1002600008330FE0CB680C330CE08B682BB1012B0B
:100270004FF0080303D0456104E0042302E0056168
:1002800000E00023FF2A01D8064601E000F1040641
:100290004FEA840501D9A5F12005D6F8008007FAB8
:1002A00005FC28EA0C0803FA05F548EA0508C6F833
:1002B00000804D68ED0070D53E4DAE6946F00106F8
:1002C000AE61AD6924F0030605F0010500953A4DD5
:1002D00006EB050CDCF80850A607360F07FA06F8FF
:1002E00025EA0805DFF8D480404503D14FF0000827
:1002F00025E052E0DFF8C880404502D14FF0010808
:100300001DE0DFF8C080404502D14FF0020816E042
:10031000DFF8B480404502D14FF003080FE0DFF86A
:10032000AC80404502D14FF0040808E0DFF8A0801F
:10033000404502D14FF0050801E04FF0060808FAE9
:1003400006F848EA0508CCF808804D68D9F800603E
:10035000ED034D4601D5164300E096432E604D68EF
:10036000DAF80060AD03554601D5164300E0964328
:100370002E604D68DBF80060ED025D4601D5164346
:1003800000E096432E604D68DEF80060AD027546D1
:1003900001D5164300E096432E60641C0A68164699
:1003A000E2407FF429AFBDE8F88F0000000401406F
:1003B0000000111000100240000001400008014040
:1003C000000C0140001001400014014000180140E1
:1003D000001C0140C26821EA02030A4043EA0241CC
:1003E000016170470AB1016170470904FBE7000031
:1003F00001488068704700000000002002488168C2
:1004000002781144816070470000002010B503207D
:1004100000F074F8002000F005F800F023F8002048
:1004200010BD000070B50D4D04464FF47A71287868
:10043000B1FBF0F00A490968B1FBF0F000F0B2FA44
:1004400048B9102C07D200222146501E00F036F881
:1004500000206C6070BD012070BD00000000002015
:100460000C0000200C4808B5816941F00101816150
:10047000816901F001010091C16941F08051C161C0
:10048000C06900F0805000900448416821F0E061AC
:1004900041F00071416008BD0010024000000140C1
:1004A000002809DB00F01F02012191404009800073
:1004B00000F1E020C0F8001170470000F0B40E4BCE
:1004C0001B680C46C3F30223C3F10705042D00D9B2
:1004D0000425191D072901D2002300E0DB1E012697
:1004E00006FA05F1491E214099409E40761E1640AD
:1004F0003143F0BC00F0C0BD0CED00E0064900F057
:10050000070208684FF6FF03184040EA0220034A3A
:1005100010430860704700000CED00E00000FA0591
:100520002DE9F041050027D02868334C810712D50A
:10053000400703D5606840F4E060606028780007F9
:1005400003D5606840F4605060606068A96820F07E
:10055000F000084360602878C00729D06868012847
:1005600004D02168022804D0890703E021688903A8
:1005700000E08901002902DB0120BDE8F08161680B
:1005800021F0030101436160FFF732FF064641F2AB
:10059000883706E0FFF72CFF801BB84201D9032003
:1005A000EBE76068696800F00C00B0EB810FF1D1F7
:1005B0002878400705D56068E96820F4E0600843C2
:1005C00060602878000706D56068296920F46050CB
:1005D00040EAC100606000F017F86168074AC1F3A3
:1005E0000311515CC8400649086006480068FFF7DF
:1005F00019FF0020C1E70000001002403811000878
:100600000C0000200400002013A188B00FC98DE861
:100610000F0015A10DF1100C0FC98CE80F00164A40
:100620005168164801F00C03042B10D0082B0ED192
:10063000C1F38343C9031DF803000AD5D16A04AA94
:1006400001F00F01515C0D4A5043B0FBF1F008B0CE
:1006500070470B494843FAE70203040506070809F7
:100660000A0B0C0D0E0F10100102030405060708FB
:10067000090A0B0C0D0E0F100010024000127A0038
:1006800000093D002DE9F84F040070D02078C04DDE
:10069000C00749D06868C0F38100012807D06868A6
:1006A000C0F38100022809D16868C00306D5286814
:1006B000800339D560680028E7D035E06068B0F580
:1006C000803F0BD010B1B0F5A02F11D0286820F4D6
:1006D00080302860286820F4802002E0286840F4F8
:1006E00080302860606890B1FFF782FE06460AE01D
:1006F000286840F480202860F0E700BFFFF778FE0C
:10070000801B642873D828688003F7D50CE0FFF7B6
:100710006FFE064605E000BFFFF76AFE801B6428F7
:10072000F0D828688003F7D420789A4E80074FF0DD
:1007300001094FF0000839D5686810F00C0F07D098
:100740006868C0F38100022809D16868C00306D434
:100750002868800714D52069012808D110E0206995
:10076000B0B1C6F80090FFF743FE074605E00AE186
:10077000FFF73EFEC01B0228C4D828688007F7D5C3
:100780002868616920F0F80040EAC10028600DE0A7
:10079000C6F80080FFF72CFE074604E0FFF728FEAE
:1007A000C01B022823D828688007F7D420780007C8
:1007B0002CD57948A169D9B1C0F80090FFF718FE8F
:1007C000074604E0FFF714FEC01B02280FD8686A32
:1007D0008007F7D571484FF4FA510068B0FBF1F08B
:1007E000009000BF0098411E0091FAD20EE080E018
:1007F000C0F80080FFF7FCFD074604E0FFF7F8FDB6
:10080000C01B022875D8686A8007F7D42078400793
:1008100060D5E8690027C00008D4E86940F080503E
:10082000E861E869012700F0805000905C480168A9
:10083000C90513D40168834641F480710160FFF754
:10084000D7FD824606E000BFFFF7D2FDA0EB0A000D
:1008500064284ED8DBF80000C005F5D5E068012813
:100860000AD008B1052813D0286A20F001002862B8
:10087000286A20F0040002E0286A40F001002862A3
:10088000E06841F2883B98B1FFF7B2FD82460BE089
:10089000286A40F004002862EEE700BFFFF7A8FDD9
:1008A000A0EB0A0159455AD8286A8007F6D50CE012
:1008B000FFF79EFD824605E0FFF79AFDA0EB0A01D7
:1008C00059454CD8286A8007F6D41FB1E86920F052
:1008D0008050E861E06988B36968C1F38101022949
:1008E00044D00228C6F8608004D0FFF781FD04469A
:1008F00038E034E0FFF77CFD074604E0FFF778FDC1
:10090000C01B02282BD828688001F7D4206AB0F5D4
:10091000803F05D1E86AA16820F00F000843E86233
:10092000D4E908010843696821F474110843686038
:10093000C6F86090FFF75CFD044606E025E000BFC6
:10094000FFF756FD001B022809D828688001F7D55B
:100950001BE000BFFFF74CFD001B022802D903205B
:10096000BDE8F88F28688001F4D40EE00128F7D0A4
:100970006868226A00F48031914204D1616A00F40F
:100980007010884201D00120EAE70020E8E700006B
:100990000010024000004242800442420C0000204D
:1009A0000070004010B5401EB0F1807F01D30120DF
:1009B00010BD4FF0E02460610F21601700F05CFB78
:1009C0000020A06107202061002010BD7047704703
:1009D00070B590F83C20012A2FD0012480F83C40CB
:1009E000022280F83D2003685A689D6822F0700654
:1009F0000A6832435A60124B02689A4211D0B2F12F
:100A0000804F0ED00F4B9A420BD00F4B9A4208D01A
:100A10000E4B9A4205D00E4B9A4202D00D4B9A4291
:100A200004D1496825F080031943916080F83D4066
:100A3000002180F83C10084670BD022070BD000007
:100A4000002C01400004004000080040000C004061
:100A5000001800400040014010B5040003D094F895
:100A60003D0010B107E0012010BD002084F83C00DB
:100A7000204600F01FF8022084F83D00211D206868
:100A800000F060FA012084F8460084F83E0084F803
:100A90003F0084F8400084F8410084F8420084F864
:100AA000430084F8440084F8450084F83D000020A9
:100AB00010BD000008B5154A0168154891420ED1D5
:100AC000C16941F00201C161C069002200F0020069
:100AD000009011461D20FFF7F1FC1D2010E00D4A8B
:100AE000914211D1C16941F01001C161C069002278
:100AF00000F01000009011463620FFF7DFFC362092
:100B0000BDE80840FFF7CCBC08BD00000004004071
:100B1000001002400010004090F83D10012901D063
:100B200001207047022180F83D100168CA6842F038
:100B30000102CA6000681049884211D0B0F1804FAC
:100B40000ED00E4988420BD00D49884208D00D497D
:100B5000884205D00C49884202D00C49884204D111
:100B6000816801F00701062903D0016841F0010105
:100B70000160002070470000002C0140000400408C
:100B800000080040000C00400018004000400140F8
:100B900070B5044690F83C00012817D0012584F870
:100BA0003C50022084F83D002068826822F07702E1
:100BB00022F47F4282600868502830D00DDC202863
:100BC0004DD005DC98B310283BD148E0022070BD21
:100BD000302844D0402834D139E0602828D070280B
:100BE00006D0B0F5805F2CD0B0F5005F29D10AE0C7
:100BF000CB68D1E90121206800F008FA20688168FB
:100C000041F0770109E0CB68D1E90121206800F0CB
:100C1000FDF92068816841F48041816011E0CA6873
:100C20004968206800F004FA5021206807E016E0C7
:100C3000CA684968206800F00CFA6021206800F05A
:100C4000EFF984F83D50002084F83C0070BDCA687C
:100C50004968206800F0ECF940212068EFE722683D
:100C600001461046EBE7704770B50446006801691D
:100C70004FF00005C943890715D4C168C9438907E6
:100C800011D4E91E01610120207720688069800766
:100C9000204602D0FFF7E7FF04E000F098F8204676
:100CA00000F096F8257720680169C943490717D4F1
:100CB000C168C943490713D46FF0040101610220E0
:100CC00020772068806910F4407F204602D0FFF72B
:100CD000CAFF04E000F07BF8204600F079F82577A1
:100CE00020680169C943090716D4C168C9430907C7
:100CF00012D46FF008010161042020772068C069D8
:100D00008007204602D0FFF7AEFF04E000F05FF856
:100D1000204600F05DF8257720680169C943C906BF
:100D200017D4C168C943C90613D46FF0100101611B
:100D3000082020772068C06910F4407F204602D048
:100D4000FFF791FF04E000F042F8204600F040F881
:100D5000257720680169C943C90708D1C168C9431B
:100D6000C90704D1891E0161204600F033F82068CC
:100D70000169C943090609D4C168C943090605D4F4
:100D80006FF0800101612046FFF720FE20680169B5
:100D9000C943490609D4C168C943490605D46FF05F
:100DA00040010161204600F031F820680169C94323
:100DB00089060BD4C168C943890607D46FF02001A6
:100DC00001612046BDE87040FFF701BE70BD70476D
:100DD0007047000070B5044600680949094D884213
:100DE00003D101212846FFF7F5FA07492068884218
:100DF00005D12846BDE870400821FFF7EBBA70BD69
:100E00000004004000100140001000407047FEE761
:100E100030B585B0002418480094019402940394DE
:100E2000816941F010018161816901F01001049133
:100E3000816941F020018161816901F02001049103
:100E4000816941F00401816180690C4D00F004006A
:100E5000049000220F212846FFF7C4FA0F200090CB
:100E60000120CDE901040220039069462846FFF7DE
:100E7000B5F905B030BD000000100240001001407F
:100E800010B586B000241248009401940294039493
:100E900004940E490594016045F6C051C0E901145F
:100EA00040F2CF71C0E903148461FFF7D5FD4FF420
:100EB0008050009069460648FFF76AFE049404A932
:100EC00003480594FFF784FD06B010BD0004004000
:100ED00010000020FEE7704770477047FFF78EBA9A
:100EE00030B58FB028216846FFF747F914210AA8CA
:100EF000FFF743F90225012004900095102005908A
:100F000000240004CDE9084007956846FFF7BAFBC6
:100F10000F200A90CDE90B540D9400210AA80E94DD
:100F2000FFF7FEFA0FB030BD704700000148FFF731
:100F30009BBE0000100000200148FFF795BE000096
:100F4000580000202DE9F0430268264B264C274D1F
:100F5000274E4FF08049984207D0484505D0A0421F
:100F600003D0A84201D0B04203D122F070074A68F2
:100F70003A43204FDFF880C0DFF88080984216D0D7
:100F8000484514D0A04212D0A84210D0B0420ED092
:100F90001B4CA0420BD01B4CA04208D01A4CA042C4
:100FA00005D0B84203D0604501D0404503D122F4BA
:100FB0004074CA6822434C6922F0800222430260D6
:100FC0008A68C2620A688262984205D0B84203D039
:100FD000604501D0404501D10969016301214161AA
:100FE000BDE8F083002C01400004004000080040F0
:100FF000000C004000400140004401400048014016
:1010000000180040001C00400020004010B584681B
:1010100042EA032224F47F440A432243826010BD43
:10102000826822F070020A4342F007018160704733
:1010300010B5036A046A24F001040462846924F090
:10104000F00444EA021423F00A020A4384610262B3
:1010500010BD10B5036A23F0100303628369046AAC
:1010600023F4704343EA023224F0A00343EA01115F
:101070008261016210BDFEE70907090E002804DB4A
:1010800000F1E02080F80014704700F00F0000F13C
:10109000E02080F8141D704702E008C8121F08C144
:1010A000002AFAD170477047002001E001C1121FE9
:1010B000002AFBD1704700001CB5FFF7A7F9FFF726
:1010C0000FFFFFF7A5FEFFF7DBFE00241848009492
:1010D00016490194016045F6C051C0E9011440F27F
:1010E000E7318461C160FFF7B7FC0094694610489E
:1010F0000194FFF76DFC0E484838FFF70DFD0C48D2
:10110000FFF70AFD0B4C4FF4FA756E0004212046E0
:10111000FFF760F92846FFF74FF802212046FFF756
:1011200059F93046FFF748F8F0E70000001000409A
:1011300058000020001001400000000000000000E6
:1011400001020304060708096811000800000020D6
:10115000100000009810000878110008100000200E
:1011600090040000A810000801000000100000001A
:08117000000000000024F4005F
:0400000508000135B9
:00000001FF
