:020000040800F2
:100000003005002049010008AB170008ED16000874
:10001000A917000889020008891B000800000000D9
:10002000000000000000000000000000E5180008CB
:100030008B02000800000000AD170008E718000858
:100040006301000863010008630100086301000800
:1000500063010008630100086301000863010008F0
:1000600063010008630100086301000863010008E0
:1000700063010008630100086301000863010008D0
:10008000630100086301000863010008000000002C
:1000900000000000000000000000000063010008F4
:1000A00063010008630100086301000863010008A0
:1000B0006301000863010008630100086301000890
:1000C0006301000863010008630100086301000880
:1000D00063010008691B0008630100086301000850
:1000E0006301000863010008630100086301000860
:1000F0006301000863010008000000000000000028
:100100000000000000000000630100086301000817
:10011000630100086301000863010008630100082F
:10012000630100086301000863010008630100081F
:1001300063010008DFF80CD000F02AF800480047FF
:10014000C91B0008300500200648804706480047C4
:10015000FEE7FEE7FEE7FEE7FEE7FEE7FEE7FEE777
:10016000FEE7FEE72D19000835010008D2B201E0D4
:1001700000F8012B491EFBD270470022F6E710B5AC
:1001800013460A4604461946FFF7F0FF204610BD05
:10019000064C074D06E0E06840F0010394E80700D4
:1001A00098471034AC42F6D3FFF7C8FFF81C00089C
:1001B000181D000810B505210F2000F033F80821A4
:1001C000102000F02FF80021BDE81040132000F0AF
:1001D00029B8000031B5104C9DF80000002240F015
:1001E00080008DF800001021204600F0F5F964230E
:1001F00001226946094800F01CFF642306220849D1
:10020000064800F069FE01221021204600F0E4F9C2
:1002100003480C38007B38BD0010014098000020D6
:100220000C00002040F0020210B50B480B4C02708D
:10023000417000221021204600F0CEF964230622EE
:100240000549074800F0F5FE20460122BDE81040B0
:10025000102100F0C1B900000E0000200010014084
:100260009800002010B5642308220549054801F0D4
:10027000E3F9BDE810404FF47A7000F09FB8000039
:1002800022000020F0000020FEE770472DE9F05F1B
:1002900090F821100024022903D004218163012455
:1002A00085E001680A6822F00E020A6001680A68A7
:1002B00022F001020A603F4E3E4FB215DFF8F4C053
:1002C000DFF8F090DFF8ECA0DFF8E8B0DFF8E4E06A
:1002D0000168783F13011502ACF1640CA9F15009D3
:1002E000AAF13C0AABF1280BAEF1140E4FF48018C2
:1002F000B14227D9B9420ED0614512D049451DD02F
:10030000514518D0594518D0714501D1424615E0E4
:10031000294EB14201D1012210E0274E1436B142DC
:1003200001D110220AE0244E2836B14206D0224ADA
:100330003C32914201D11A4600E02A461E49091F6B
:100340000A602BE0B94213D0614517D0494522D04D
:1003500051451DD059451DD0714501D142461AE085
:10036000B14202D14FF0807215E0134EB14201D17B
:10037000012210E0104E1436B14201D110220AE0E1
:100380000D4E2836B14206D00B4A3C32914201D183
:100390001A4600E02A46074980394A60012180F860
:1003A0002110002180F82010416B01B188472046C0
:1003B000BDE8F09F800002400804024070B504468A
:1003C00000F010F90546601C02D00448007804448F
:1003D00000F008F9401BA042FAD370BD34000020A1
:1003E0002DE9F84FDFF8C891002409F1040A0AF159
:1003F000040B23460F270BF1040ED1E00125A54085
:1004000006EA0502AA4276D1DFF8A8C14E68A6EB3B
:100410000C0866452BD00DDC032E34D005DC36B33A
:10042000012E19D0022E2FD11BE0112E16D0122E24
:100430002AD119E0B8F5881F19D006DCB8F5803F3D
:1004400015D0B8F5801F1FD111E0B8F5001F0ED0F0
:10045000B8F5041F18D10AE0CB6815E0CB681B1D66
:1004600012E0CB6808330FE0CB680C330CE08B68EC
:100470002BB1012B4FF0080303D0456104E00423A6
:1004800002E0056100E00023FF2A01D8064601E0F2
:1004900000F104064FEA840501D9A5F12005D6F83C
:1004A000008007FA05FC28EA0C0803FA05F548EA7B
:1004B0000508C6F800804D68ED0070D53E4DAE6968
:1004C00046F00106AE61AD6924F0030605F00105B2
:1004D00000953A4D06EB050CDCF80850A607360FE0
:1004E00007FA06F825EA0805DFF8D480404503D16D
:1004F0004FF0000825E052E0DFF8C880404502D107
:100500004FF001081DE0DFF8C080404502D14FF0F8
:10051000020816E0DFF8B480404502D14FF003082E
:100520000FE0DFF8AC80404502D14FF0040808E04E
:10053000DFF8A080404502D14FF0050801E04FF000
:10054000060808FA06F848EA0508CCF808804D685D
:10055000D9F80060ED034D4601D5164300E09643FF
:100560002E604D68DAF80060AD03554601D516439C
:1005700000E096432E604D68DBF80060ED025D46BA
:1005800001D5164300E096432E604D68DEF800600A
:10059000AD02754601D5164300E096432E60641CFB
:1005A0000A681646E2407FF429AFBDE8F88F0000E4
:1005B0000004014000001110001002400000014042
:1005C00000080140000C01400010014000140140EF
:1005D00000180140001C01400AB101617047090484
:1005E000FBE70000014880687047000034000020ED
:1005F00070B5040025D094F83D00002520B984F89A
:100600003C50204600F0B8F8242084F83D002068D3
:10061000016821F0010101602068016841F4004196
:1006200001602068016821F40041016000F0DAF9FE
:100630004D4A6168914201D84C4900E04C498842DA
:1006400001D2012070BD4B492368B0FBF1F15E6817
:1006500026F03F060E435E606368934206D94FF46E
:10066000967359434FF47A73B1FBF3F12368491C35
:100670001E6A26F03F06314319626168914210D824
:100680004900401EB0FBF1F2521CC2F30B02042AD7
:1006900001D2042022E0B0FBF1F0401CC0F30B00BB
:1006A0001CE0A268F2B301EBC10303EB0116431E89
:1006B000B3FBF6F35B1C43F480431B0549D092B3B4
:1006C00001EBC10202EB0111401EB0FBF1F0401C36
:1006D000C0F30B0040F4804040F400402168CA6938
:1006E0004CF6FF739A431043C861D4E907100143E5
:1006F0002068026822F0C00211430160D4E90301BE
:1007000001432068826848F2FF339A4311438160B5
:10071000D4E9050108432168CA6822F0FF021043AA
:10072000C86001E00EE016E02068016841F00101B8
:1007300001602564202084F83D00256384F83E5044
:10074000002070BD01EB4106431EB3FBF6F35B1CBA
:10075000B3E70120C2E701EB4101401EB0FBF1F01D
:10076000401CC0F30B00B7E7A086010080841E0088
:1007700000093D0040420F0010B586B000210091F5
:100780000191029103910068104988421BD1104CDD
:10079000A06940F00800A061A069694600F0080067
:1007A00004904FF4406000901220019003200390C9
:1007B0000848FFF715FEE06940F48000E061E06959
:1007C00000F48000049006B010BD00000058004006
:1007D00000100240000C0140024881680278114478
:1007E000816070473400002010B5032000F074F8D9
:1007F000002000F005F800F023F8002010BD0000F4
:1008000070B50D4D04464FF47A712878B1FBF0F0C5
:100810000A490968B1FBF0F000F0AFFD48B9102CAF
:1008200007D200222146501E00F036F800206C60EE
:1008300070BD012070BD0000340000204000002089
:100840000C4808B5816941F001018161816901F0BD
:1008500001010091C16941F08051C161C06900F09E
:10086000805000900448416821F0E06141F000713F
:10087000416008BD0010024000000140002809DB73
:1008800000F01F02012191404009800000F1E020AA
:10089000C0F8001170470000F0B40E4B1B680C4606
:1008A000C3F30223C3F10705042D00D90425191D44
:1008B000072901D2002300E0DB1E012606FA05F11C
:1008C000491E214099409E40761E16403143F0BC9F
:1008D00001F05BB90CED00E0064900F00702086882
:1008E0004FF6FF03184040EA0220034A1043086015
:1008F000704700000CED00E00000FA052DE9F04122
:10090000050027D02868334C810712D5400703D54E
:10091000606840F4E06060602878000703D5606894
:1009200040F4605060606068A96820F0F0000843FF
:1009300060602878C00729D06868012804D0216841
:10094000022804D0890703E02168890300E08901B7
:10095000002902DB0120BDE8F081616821F003017C
:1009600001436160FFF73EFE064641F2883706E02C
:10097000FFF738FE801BB84201D90320EBE760681F
:10098000696800F00C00B0EB810FF1D128784007C6
:1009900005D56068E96820F4E06008436060287865
:1009A000000706D56068296920F4605040EAC1005C
:1009B000606000F037F86168074AC1F30311515CC9
:1009C000C8400649086006480068FFF719FF002084
:1009D000C1E7000000100240E01C000840000020B9
:1009E000380000200448054900684968044AC1F3FA
:1009F0000221515CC84070474000002000100240B6
:100A0000F01C00080448054900684968044AC1F31D
:100A1000C221515CC84070474000002000100240D5
:100A2000F01C000813A188B00FC98DE80F0015A1B4
:100A30000DF1100C0FC98CE80F00164A51681648CA
:100A400001F00C03042B10D0082B0ED1C1F383430B
:100A5000C9031DF803000AD5D16A04AA01F00F01E9
:100A6000515C0D4A5043B0FBF1F008B070470B49A0
:100A70004843FAE702030405060708090A0B0C0DB0
:100A80000E0F10100102030405060708090A0B0CDB
:100A90000D0E0F100010024000127A0000093D00F8
:100AA0002DE9F84F040070D02078C04DC00749D020
:100AB0006868C0F38100012807D06868C0F381002E
:100AC000022809D16868C00306D52868800339D593
:100AD00060680028E7D035E06068B0F5803F0BD053
:100AE00010B1B0F5A02F11D0286820F48030286014
:100AF000286820F4802002E0286840F480302860D4
:100B0000606890B1FFF76EFD06460AE0286840F481
:100B100080202860F0E700BFFFF764FD801B642899
:100B200073D828688003F7D50CE0FFF75BFD064615
:100B300005E000BFFFF756FD801B6428F0D8286849
:100B40008003F7D420789A4E80074FF001094FF0C8
:100B5000000839D5686810F00C0F07D06868C0F33A
:100B60008100022809D16868C00306D4286880077C
:100B700014D52069012808D110E02069B0B1C6F869
:100B80000090FFF72FFD074605E00AE1FFF72AFD79
:100B9000C01B0228C4D828688007F7D52868616977
:100BA00020F0F80040EAC10028600DE0C6F800809F
:100BB000FFF718FD074604E0FFF714FDC01B0228ED
:100BC00023D828688007F7D4207800072CD57948E7
:100BD000A169D9B1C0F80090FFF704FD074604E011
:100BE000FFF700FDC01B02280FD8686A8007F7D501
:100BF00071484FF4FA510068B0FBF1F0009000BF6B
:100C00000098411E0091FAD20EE080E0C0F800800A
:100C1000FFF7E8FC074604E0FFF7E4FCC01B0228EE
:100C200075D8686A8007F7D42078400760D5E869EE
:100C30000027C00008D4E86940F08050E861E86906
:100C4000012700F0805000905C480168C90513D46A
:100C50000168834641F480710160FFF7C3FC82465E
:100C600006E000BFFFF7BEFCA0EB0A0064284ED8E8
:100C7000DBF80000C005F5D5E06801280AD008B10E
:100C8000052813D0286A20F001002862286A20F085
:100C9000040002E0286A40F001002862E06841F2A6
:100CA000883B98B1FFF79EFC82460BE0286A40F033
:100CB00004002862EEE700BFFFF794FCA0EB0A01F6
:100CC00059455AD8286A8007F6D50CE0FFF78AFC08
:100CD000824605E0FFF786FCA0EB0A0159454CD897
:100CE000286A8007F6D41FB1E86920F08050E861D7
:100CF000E06988B36968C1F38101022944D0022800
:100D0000C6F8608004D0FFF76DFC044638E034E09C
:100D1000FFF768FC074604E0FFF764FCC01B0228ED
:100D20002BD828688001F7D4206AB0F5803F05D120
:100D3000E86AA16820F00F000843E862D4E90801DE
:100D40000843696821F4741108436860C6F860902C
:100D5000FFF748FC044606E025E000BFFFF742FC31
:100D6000001B022809D828688001F7D51BE000BFC6
:100D7000FFF738FC001B022802D90320BDE8F88FDA
:100D800028688001F4D40EE00128F7D06868226A50
:100D900000F48031914204D1616A00F470108842FD
:100DA00001D00120EAE70020E8E70000001002403F
:100DB0000000424280044242400000200070004097
:100DC00070B5040009D0606A002540B125616561F5
:100DD000A56294F8510040B10CE0012070BD60683C
:100DE000B0F5827FF4D0E561F2E784F850502046F8
:100DF00000F03AF8022084F851002068016821F0E0
:100E000040010160A088218900F4827001F404414E
:100E10000843A18901F400610843217C01F002012B
:100E20000843217D01F001010843218B01F4007189
:100E30000843217F01F03801084394F8201001F0A5
:100E400080010843218D01F40051084321680860A6
:100E5000A069042101EA104021684860656501200D
:100E600084F85100002070BD30B585B00024009496
:100E700001940294039400681449884223D11448D1
:100E8000816941F480518161816901F4805104914B
:100E9000816941F00401816180690E4D00F0040018
:100EA0000490A02000900220019003200390694646
:100EB0002846FFF795FA4020CDE900046946284608
:100EC0000294FFF78DFA05B030BD000000300140FC
:100ED00000100240000801402DE9F84F0446406828
:100EE0000025984616460F464FF0040BB0F5827F5A
:100EF00001D1A06888B194F85000012818D00120D1
:100F000084F85000FFF76EFB814694F851004FF0D3
:100F1000000A01280ED0022582E084F851B0134661
:100F20000A462046CDF8008000F036F9BDE8F88F7B
:100F30000220FBE7002F72D0002E70D084F851B051
:100F4000C4F854A0A763A687E687C4F830A0A4F825
:100F500034A0A4F836A0C4F840A0C4F844A0A06807
:100F6000B0F5004F09D12068016821F0400101600F
:100F70002068016821F48041016020680168490609
:100F800003D4016841F040010160E068D8B139E064
:100F900020688168C90709D0007BA16B0870A06B2D
:100FA000401CA063E08F401EE0870CE0FFF71AFBB7
:100FB000A0EB0901414503D3B8F1FF3F03D036E070
:100FC000B8F1000F33D0E08F0028E1D11DE0206898
:100FD0008168C90709D0C068A16B0880A06B801C1C
:100FE000A063E08F401EE0870CE0FFF7FBFAA0EB68
:100FF0000901414503D3B8F1FF3F03D017E0B8F131
:10100000000F14D0E08F0028E1D14A464146204627
:1010100000F0CDFB08B120206065606D00B10125B6
:10102000012084F8510084F850A028467EE703256B
:10103000F6E72DE9F84F044690F8500000271D46CA
:101040001646894601280DD04FF0010B84F850B0A8
:10105000FFF7C8FA804694F85100BA46012804D038
:10106000022793E00220BDE8F88FB9F1000F73D09A
:10107000002E71D0032084F85100C4F854A0C4F8A5
:101080003090A686E686C4F838A0A4F83CA0A4F860
:101090003EA0C4F844A0C4F840A0A068B0F5004F3A
:1010A00009D12068016821F04001016020680168D1
:1010B00041F48041016020680168490603D4016859
:1010C00041F040010160E068B0F5006F606803D056
:1010D00030B3012E24D041E008B1012E1CD1206B89
:1010E00021680088C86006E020688168890709D502
:1010F000216B0988C160206B801C2063E08E401E3C
:10110000E08609E0FFF76EFAA0EB0800A84202D3E0
:10111000681C01D031E07DB3E08E0028E4D120E0EE
:10112000206B21680078087306E0206881688907D1
:1011300009D5216B09780173206B401C2063E08E78
:10114000401EE0860AE0FFF74DFAA0EB0800A84237
:1011500003D3681C02D010E017E06DB1E08E0028C8
:10116000E3D142462946204600F04FFB08B120203B
:101170006065A06818B106E0FFE7032706E0206875
:10118000C16880680090606D00B1012784F851B09B
:1011900084F850A0384666E72DE9F84F044690F8E9
:1011A000500000270A9E1D4692468B464FF00109CB
:1011B00001280ED0012084F85000FFF713FA804672
:1011C00094F85100616801280CD0B1F5827F07D1F5
:1011D00002E00220BDE8F88FA16809B9042801D017
:1011E0000227C2E0BBF1000F27D0BAF1000F24D0D4
:1011F0001DB394F85100042802D0052084F8510052
:1012000000206065C4F838A0E587A587C4F830B031
:10121000E586A5862064606420680168490603D4D9
:10122000016841F040010160E068B0F5006F60685E
:1012300005D0E8B3012D46D07FE0012795E008B145
:10124000012D39D1206B21680088C860206B801C7B
:101250002063E08E401EE0862EE0206881688907CA
:101260000FD5E18E69B1B9F1010F0AD1216B09885F
:10127000C160206B801C2063E08E401EE0864FF032
:10128000000920688168C9070CD0E18F51B1C0689E
:10129000A16B0880A06B801CA063E08F401EE087DC
:1012A0004FF00109FFF79EF9A0EB0800B04200E003
:1012B00009E001D3701C50D1E08E0028CDD1E08F21
:1012C0000028CAD13FE0206B216800780873206BAA
:1012D000401C2063E08E401EE0862EE0206881687E
:1012E00089070FD5E18E69B1B9F1010F0AD1216BE0
:1012F00009780173206B401C2063E08E401EE0865D
:101300004FF0000920688168C9070CD0E18F51B106
:10131000C068A16B0870A06B401CA063E08F401EEA
:10132000E0874FF00109FFF75DF9A0EB0800B0423C
:1013300002D3701C01D010E07EB1E08E0028CDD128
:10134000E08F0028CAD142463146204600F05DFABF
:1013500028B101272020606507E0032705E0A06889
:1013600018B92068C16880680090012084F8510095
:10137000002084F8500038462CE710B5401EB0F12C
:10138000807F01D3012010BD4FF0E02460610F2168
:10139000601700F0FAFB0020A06107202061002008
:1013A00010BD704770B5026804461068D168536973
:1013B00010F00F0F52D003F0010501F490762E4388
:1013C0005FD0C20705D0CA0503D5E26B42F0010227
:1013D000E263420705D5DA0703D0E26B42F002026E
:1013E000E263820705D5DA0703D0E26B42F004021C
:1013F000E263020707D501F020022A4303D0E26B23
:1014000042F00802E263E26B002A33D0800604D582
:10141000880602D5204600F0A0FA20684069E16BFA
:10142000C0F38010090700D428B3204600F087FAE3
:101430002068416949061AD5416921F0400141619E
:10144000606BA0B12D494163606BFEF71FFF002860
:1014500010D0606B416BBDE870400847830610D523
:101460008B060ED52046BDE8704000F076BA2046C7
:10147000FFF797FF70BD2046FFF793FF0020E06362
:1014800070BD03062BD50B0629D594F83900212809
:10149000F6D1A068B0F5805F01D12069B0B1206AB3
:1014A000411C2162216800784860E08C401E0004E5
:1014B000000CE084E4D12068C16821F08001C160A3
:1014C0002068C16841F04001C16070BD206A008899
:1014D000C0F308005060206A801C2062E5E74006E7
:1014E000F3D54806F1D5D168204621F04001D160FE
:1014F000202184F8391000F0F8F870BD2F19000889
:1015000070B5040004D094F83900002510B106E04D
:10151000012070BD84F83850204600F023F82420C4
:1015200084F839002068C16821F40051C160204668
:1015300000F05AFA2068016921F4904101612068A5
:10154000416921F02A0141612068C16841F40051DC
:10155000C160E563202084F8390084F83A00002057
:1015600070BD000030B585B0002400940194029451
:1015700003940068184988422CD11848816941F4C5
:1015800080418161816901F480410491816941F068
:10159000040181618069124D00F0040004904FF451
:1015A00000700090022001900320039069462846B5
:1015B000FEF716FF2815CDE9000469462846029477
:1015C000FEF70EFF002211462520FFF765F92520C2
:1015D000FFF754F905B030BD00380140001002405B
:1015E0000008014090F83A30202B22D1F9B1F2B135
:1015F00090F83830012B1CD081628285C285002191
:10160000C163222280F83A2080F838100168CA6845
:1016100042F48072CA6001684A6942F001024A617C
:101620000068C16841F02001C160002070470120BE
:1016300070470220704770472DE9F843044690F840
:1016400039001F4616460D4620284CD1C5B1BEB103
:1016500094F83800012846D0012084F838004FF073
:101660000008C4F83C80212084F83900FEF7BAFF56
:10167000A6848146E684A068B0F5805F03D004E0CC
:101680000120BDE8F883206928B12E465FF00005EF
:1016900084F838800EE00026FAE78021204600F02A
:1016A00031FAA0B9AEB116F8010B21684860E08CA0
:1016B000401EE084E08C4B464FF00002009700286B
:1016C000EBD14FF04001204600F01CFA30B103206E
:1016D000D7E735F8020BC0F30800E6E7202084F8CE
:1016E00039000020CDE70220CBE77047FEE700007D
:1016F00030B585B000241C480094019402940394F2
:10170000816941F010018161816901F0100104914A
:10171000816941F020018161816901F0200104911A
:10172000816941F004018161816901F00401049142
:10173000816941F00801816180690C4D00F0080069
:101740000490002218212846FEF746FF182000903A
:101750000120CDE901040220039069462846FEF7E6
:101760003FFE05B030BD00000010024000100140F7
:101770000C480B49022201604FF482714160002144
:101780008160C0E903120122426152028261082293
:10179000C0E90721416281620A21C162FFF710BBE3
:1017A0000030014098000020FEE770477047F8B510
:1017B000044640684FF48273984217D1A0684FF4F2
:1017C0008065B0F5004F01D0A8420FD120680668AF
:1017D00026F0400606606068984207D1A068A842DB
:1017E00004D100920B460022012103E000920B4637
:1017F00000228021204600F019F8002804D0606DF6
:1018000040F0200060650320F8BD38B50B4600921B
:1018100004460022802100F009F8002804D0606D01
:1018200040F020006065032038BD00002DE9F8433A
:101830001E46914688460446089DFEF7D3FE401B8F
:10184000351AFEF7CFFE074625480068C0F3CB30B7
:10185000684338E0701C37D0FEF7C4FEC01BA842B6
:1018600003D215B1009860B32CE02068416821F0E4
:10187000E00141606068B0F5827F0BD1A068B0F5EF
:10188000004F02D0B0F5806F04D12068016821F0CC
:1018900040010160A06AB0F5005F09D120680168CD
:1018A00021F4005101602068016841F40051016099
:1018B000012084F85100002084F850000320BDE886
:1018C000F8830025401E00902068816838EA0100F6
:1018D00004D000214945BDD10020F0E70121F9E7FE
:1018E000400000207047FEF777BF10B590B0282168
:1018F0006846FEF742FC14210AA8FEF73EFC0220CF
:101900000090012004901020002405900794684660
:10191000FFF7C6F80F20CDE90A040C940D940021BE
:101920000AA80E94FEF7EAFF10B010BD704710B57C
:10193000406A0021C185C184FFF733FD10BD0168F5
:10194000CA6822F49072CA6001684A6922F00102F2
:101950004A61202180F83A10704710B590F83A108B
:10196000222901D0022010BD82684FF480539A4290
:1019700001D1016921B1816A9A421BD04AB10AE0C2
:101980000268816A5268C2F308020A80816A891C6F
:1019900008E0026972B10268526802F07F020A70C0
:1019A000816A491C8162C18D491E0904090CC185E7
:1019B00003D016E002685268F1E70168CA6822F0B5
:1019C0002002CA600168CA6822F48072CA60016895
:1019D0004A6922F001024A61202180F83A10FFF79B
:1019E0002AFE002010BD00002DE9F04104460068E9
:1019F0000169E26821F44051114301612169A06845
:101A0000E26908436169114322680843D16849F2D9
:101A10000C6399430143D16020684169A26921F4B4
:101A200040711143416136492068884202D1FEF776
:101A3000E9FF01E0FEF7D6FF0246E36964203221A8
:101A4000B3F5004F02EBC20303EB021362682BD025
:101A50009200B3FBF2F5B5FBF0F5B3FBF2F66FF0D5
:101A600018077D4306EB8505B3FBF2F601EB051580
:101A7000B5FBF0F5B6FBF0F605F0F00505EB061545
:101A8000B3FBF2F6B3FBF2F2B2FBF0F27A4306EBF1
:101A9000820201EB0211B1FBF0F000F00F002168AF
:101AA00028448860BDE8F0815200B3FBF2F6B6FB33
:101AB000F0F6B3FBF2F7B3FBF2F56FF0180C06FB90
:101AC0000CF607EB860601EBC606B5FBF0F5B6FB98
:101AD000F0F62D0106F0F80605EB4605B3FBF2F62D
:101AE000B3FBF2F2B2FBF0F202FB0CF206EB820265
:101AF00001EBC201B1FBF0F000F00700CFE70000FE
:101B0000003801402DE9F041984617460E4604463C
:101B1000069D1DE0681C1BD02DB1FEF763FDA0EBF8
:101B20000800A84214D92068C16821F4D071C160AE
:101B30002068416921F001014161202084F83900C9
:101B400084F83A00002084F838000320BDE8F081D2
:101B50002068006836EA000004D00020B842D9D0DE
:101B60000020F3E70120F9E710B50548FFF71AFC5C
:101B7000BDE81040082203490148FFF733BD0000CB
:101B8000F000002032000020FEE70907090E0028BF
:101B900004DB00F1E02080F80014704700F00F0033
:101BA00000F1E02080F8141D704702E008C8121F01
:101BB00008C1002AFAD170477047002001E001C136
:101BC000121F002AFBD17047FEF70EFEFFF78DFEB5
:101BD000FFF78EFD3E483D49002401603D49C0E9C4
:101BE00001144FF48041C0E9034144618461C46140
:101BF0000462FEF7FDFCFFF7BBFD354D3648AC3502
:101C000028604FF41650C5E901040C20EC60C5E9CA
:101C10000440AC612846EC61FFF772FC2868C1689B
:101C200041F02001C1602D4D05F11006A5F112040F
:101C3000FEF7C0FA0020FEF7CDFAA0720820FEF7EA
:101C4000C9FA60700220FEF7C5FA20710320FEF782
:101C5000C1FA60710420FEF7BDFAA0710520FEF7FD
:101C6000B9FAE0710620FEF7B5FA20720720FEF7F8
:101C7000B1FA607261782970217969706179A9700F
:101C8000A179E970E1792971217A6971A87100203F
:101C9000295C3154401CC0B20728F9D902200F4FEB
:101CA000E07208370CE0E07AFEF794FA2178785475
:101CB000491C2170E07A401CC0B2E072072802D8AB
:101CC00020780628EFD9FEF7CDFAB1E7005800409A
:101CD00044000020A08601000038014012000020CE
:101CE00000000000000000000102030406070809CC
:101CF0000000000001020304181D0008000000207D
:101D000044000000AA1B00085C1D000844000020DD
:101D1000EC040000BA1B00080000000000000000F6
:101D200000000000000000000000000000000000B3
:101D300000000000000000000000000000000000A3
:101D40000000000000000000000000000100000092
:0C1D500010000000000000000024F4005F
:0400000508000135B9
:00000001FF
