:020000040800F2
:100000006804002049010008271000087F0F00083D
:1000100025100008FD010008B111000800000000D3
:100020000000000000000000000000006111000856
:10003000FF010008000000002910000863110008FB
:100040006301000863010008630100086301000800
:1000500063010008630100086301000863010008F0
:1000600063010008630100086301000863010008E0
:1000700063010008630100086301000863010008D0
:10008000630100086301000863010008000000002C
:1000900000000000000000000000000063010008F4
:1000A00063010008630100086301000863010008A0
:1000B0006301000863010008630100086301000890
:1000C0006301000863010008630100086301000880
:1000D0006301000863010008630100086301000870
:1000E0006301000863010008630100086301000860
:1000F0006301000863010008000000000000000028
:100100000000000000000000630100086301000817
:10011000630100086301000863010008630100082F
:10012000630100086301000863010008630100081F
:1001300063010008DFF80CD000F02AF800480047FF
:10014000F11100086804002006488047064800476F
:10015000FEE7FEE7FEE7FEE7FEE7FEE7FEE7FEE777
:10016000FEE7FEE7AF11000835010008D2B201E05A
:1001700000F8012B491EFBD270470022F6E710B5AC
:1001800013460A4604461946FFF7F0FF204610BD05
:10019000064C074D06E0E06840F0010394E80700D4
:1001A00098471034AC42F6D3FFF7C8FF1812000886
:1001B0003812000811B581B00E4C9DF804000022E1
:1001C00040F082008DF804001021204600F014F960
:1001D0006423012201A9084800F019FD64230622C6
:1001E0006946054800F066FC01221021204600F017
:1001F00003F91CBD0010014010000020FEE770470D
:100200002DE9F84FDFF8C891002409F1040A0AF13A
:10021000040B23460F270BF1040ED1E00125A54066
:1002200006EA0502AA4276D1DFF8A8C14E68A6EB1D
:100230000C0866452BD00DDC032E34D005DC36B31C
:10024000012E19D0022E2FD11BE0112E16D0122E06
:100250002AD119E0B8F5881F19D006DCB8F5803F1F
:1002600015D0B8F5801F1FD111E0B8F5001F0ED0D2
:10027000B8F5041F18D10AE0CB6815E0CB681B1D48
:1002800012E0CB6808330FE0CB680C330CE08B68CE
:100290002BB1012B4FF0080303D0456104E0042388
:1002A00002E0056100E00023FF2A01D8064601E0D4
:1002B00000F104064FEA840501D9A5F12005D6F81E
:1002C000008007FA05FC28EA0C0803FA05F548EA5D
:1002D0000508C6F800804D68ED0070D53E4DAE694A
:1002E00046F00106AE61AD6924F0030605F0010594
:1002F00000953A4D06EB050CDCF80850A607360FC2
:1003000007FA06F825EA0805DFF8D480404503D14E
:100310004FF0000825E052E0DFF8C880404502D1E8
:100320004FF001081DE0DFF8C080404502D14FF0DA
:10033000020816E0DFF8B480404502D14FF0030810
:100340000FE0DFF8AC80404502D14FF0040808E030
:10035000DFF8A080404502D14FF0050801E04FF0E2
:10036000060808FA06F848EA0508CCF808804D683F
:10037000D9F80060ED034D4601D5164300E09643E1
:100380002E604D68DAF80060AD03554601D516437E
:1003900000E096432E604D68DBF80060ED025D469C
:1003A00001D5164300E096432E604D68DEF80060EC
:1003B000AD02754601D5164300E096432E60641CDD
:1003C0000A681646E2407FF429AFBDE8F88F0000C6
:1003D0000004014000001110001002400000014024
:1003E00000080140000C01400010014000140140D1
:1003F00000180140001C01400AB101617047090466
:10040000FBE7000001488068704700000000002002
:100410000248816802781144816070470000002022
:1004200010B5032000F066F8002000F005F800F099
:1004300023F8002010BD000070B50D4D04464FF4A8
:100440007A712878B1FBF0F00A490968B1FBF0F045
:1004500000F081FD48B9102C07D200222146501E21
:1004600000F028F800206C6070BD012070BD000015
:10047000000000200C0000200C4808B5816941F004
:1004800001018161816901F001010091C16941F0BF
:100490008051C161C06900F08050009004484168FB
:1004A00021F0E06141F00071416008BD00100240A0
:1004B00000000140F0B40E4B1B680C46C3F302234E
:1004C000C3F10705042D00D90425191D072901D200
:1004D000002300E0DB1E012606FA05F1491E21403B
:1004E00099409E40761E16403143F0BC00F061BE3C
:1004F0000CED00E0064900F0070208684FF6FF0324
:10050000184040EA0220034A104308607047000088
:100510000CED00E00000FA052DE9F041050027D0C0
:100520002868334C810712D5400703D5606840F432
:10053000E06060602878000703D5606840F4605090
:1005400060606068A96820F0F00008436060287867
:10055000C00729D06868012804D02168022804D087
:10056000890703E02168890300E08901002902DB93
:100570000120BDE8F081616821F003010143616061
:10058000FFF740FF064641F2883706E0FFF73AFFE3
:10059000801BB84201D90320EBE76068696800F06E
:1005A0000C00B0EB810FF1D12878400705D56068C9
:1005B000E96820F4E060084360602878000706D509
:1005C0006068296920F4605040EAC100606000F072
:1005D00017F86168074AC1F30311515CC840064926
:1005E000086006480068FFF727FF0020C1E7000009
:1005F00000100240081200080C0000200400002037
:1006000013A188B00FC98DE80F0015A10DF1100CD2
:100610000FC98CE80F00164A5168164801F00C0308
:10062000042B10D0082B0ED1C1F38343C9031DF84E
:1006300003000AD5D16A04AA01F00F01515C0D4AEA
:100640005043B0FBF1F008B070470B494843FAE75C
:1006500002030405060708090A0B0C0D0E0F101003
:100660000102030405060708090A0B0C0D0E0F1002
:100670000010024000127A0000093D002DE9F84FF9
:10068000040070D02078C04DC00749D06868C0F31E
:100690008100012807D06868C0F38100022809D1D1
:1006A0006868C00306D52868800339D560680028CB
:1006B000E7D035E06068B0F5803F0BD010B1B0F501
:1006C000A02F11D0286820F480302860286820F4FA
:1006D000802002E0286840F480302860606890B193
:1006E000FFF790FE06460AE0286840F48020286064
:1006F000F0E700BFFFF786FE801B642873D82868E8
:100700008003F7D50CE0FFF77DFE064605E000BF4D
:10071000FFF778FE801B6428F0D828688003F7D4A0
:1007200020789A4E80074FF001094FF0000839D524
:10073000686810F00C0F07D06868C0F381000228C9
:1007400009D16868C00306D42868800714D52069D9
:10075000012808D110E02069B0B1C6F80090FFF779
:1007600051FE074605E00AE1FFF74CFEC01B0228D8
:10077000C4D828688007F7D52868616920F0F80098
:1007800040EAC10028600DE0C6F80080FFF73AFE9D
:10079000074604E0FFF736FEC01B022823D828686E
:1007A0008007F7D4207800072CD57948A169D9B102
:1007B000C0F80090FFF726FE074604E0FFF722FE90
:1007C000C01B02280FD8686A8007F7D571484FF41C
:1007D000FA510068B0FBF1F0009000BF0098411E94
:1007E0000091FAD20EE080E0C0F80080FFF70AFE28
:1007F000074604E0FFF706FEC01B022875D8686AAA
:100800008007F7D42078400760D5E8690027C0004A
:1008100008D4E86940F08050E861E869012700F0F9
:10082000805000905C480168C90513D40168834674
:1008300041F480710160FFF7E5FD824606E000BFEC
:10084000FFF7E0FDA0EB0A0064284ED8DBF80000BB
:10085000C005F5D5E06801280AD008B1052813D0F5
:10086000286A20F001002862286A20F0040002E0D3
:10087000286A40F001002862E06841F2883B98B1A4
:10088000FFF7C0FD82460BE0286A40F004002862B2
:10089000EEE700BFFFF7B6FDA0EB0A0159455AD8B5
:1008A000286A8007F6D50CE0FFF7ACFD824605E02C
:1008B000FFF7A8FDA0EB0A0159454CD8286A80072C
:1008C000F6D41FB1E86920F08050E861E06988B390
:1008D0006968C1F38101022944D00228C6F860800A
:1008E00004D0FFF78FFD044638E034E0FFF78AFDBF
:1008F000074604E0FFF786FDC01B02282BD82868B6
:100900008001F7D4206AB0F5803F05D1E86AA1687C
:1009100020F00F000843E862D4E908010843696841
:1009200021F4741108436860C6F86090FFF76AFD0F
:10093000044606E025E000BFFFF764FD001B022827
:1009400009D828688001F7D51BE000BFFFF75AFDE2
:10095000001B022802D90320BDE8F88F2868800117
:10096000F4D40EE00128F7D06868226A00F48031E0
:10097000914204D1616A00F47010884201D00120D4
:10098000EAE70020E8E700000010024000004242D1
:10099000800442420C0000200070004070B504004A
:1009A00009D0606A002540B125616561A56294F8AF
:1009B000510040B10CE0012070BD6068B0F5827F4D
:1009C000F4D0E561F2E784F85050204600F03AF8A0
:1009D000022084F851002068016821F04001016084
:1009E000A088218900F4827001F404410843A189A0
:1009F00001F400610843217C01F002010843217DDC
:100A000001F001010843218B01F400710843217FAB
:100A100001F03801084394F8201001F080010843E8
:100A2000218D01F40051084321680860A069042168
:100A300001EA1040216848606565012084F8510092
:100A4000002070BD30B585B000240094019402945C
:100A5000039400681449884223D11448816941F401
:100A600080518161816901F480510491816941F073
:100A70000401816180690E4D00F004000490A02003
:100A80000090022001900320039069462846FFF75A
:100A9000B7FB4020CDE90004694628460294FFF7E1
:100AA000AFFB05B030BD0000003001400010024037
:100AB000000801402DE9F84F04464068002598469B
:100AC00016460F464FF0040BB0F5827F01D1A068A7
:100AD00088B194F85000012818D0012084F8500003
:100AE000FFF790FC814694F851004FF0000A01286E
:100AF0000ED0022582E084F851B013460A46204603
:100B0000CDF8008000F036F9BDE8F88F0220FBE751
:100B1000002F72D0002E70D084F851B0C4F854A0C9
:100B2000A763A687E687C4F830A0A4F834A0A4F889
:100B300036A0C4F840A0C4F844A0A068B0F5004FA7
:100B400009D12068016821F0400101602068016836
:100B500021F48041016020680168490603D40168DE
:100B600041F040010160E068D8B139E02068816857
:100B7000C90709D0007BA16B0870A06B401CA06363
:100B8000E08F401EE0870CE0FFF73CFCA0EB090182
:100B9000414503D3B8F1FF3F03D036E0B8F1000F71
:100BA00033D0E08F0028E1D11DE020688168C907BB
:100BB00009D0C068A16B0880A06B801CA063E08F87
:100BC000401EE0870CE0FFF71DFCA0EB090141454A
:100BD00003D3B8F1FF3F03D017E0B8F1000F14D0F2
:100BE000E08F0028E1D14A464146204600F01DFA38
:100BF00008B120206065606D00B10125012084F8F6
:100C0000510084F850A028467EE70325F6E72DE939
:100C1000F84F044690F8500000271D4616468946B6
:100C200001280DD04FF0010B84F850B0FFF7EAFB1C
:100C3000804694F85100BA46012804D0022793E078
:100C40000220BDE8F88FB9F1000F73D0002E71D0EB
:100C5000032084F85100C4F854A0C4F83090A6864C
:100C6000E686C4F838A0A4F83CA0A4F83EA0C4F8D6
:100C700044A0C4F840A0A068B0F5004F09D1206896
:100C8000016821F0400101602068016841F4804161
:100C9000016020680168490603D4016841F0400101
:100CA0000160E068B0F5006F606803D030B3012EDA
:100CB00024D041E008B1012E1CD1206B21680088AE
:100CC000C86006E020688168890709D5216B09881A
:100CD000C160206B801C2063E08E401EE08609E02E
:100CE000FFF790FBA0EB0800A84202D3681C01D0DC
:100CF00031E07DB3E08E0028E4D120E0206B216854
:100D00000078087306E020688168890709D5216B9F
:100D100009780173206B401C2063E08E401EE08642
:100D20000AE0FFF76FFBA0EB0800A84203D3681CA2
:100D300002D010E017E06DB1E08E0028E3D142460A
:100D40002946204600F09FF908B120206065A06880
:100D500018B106E0FFE7032706E02068C168806855
:100D60000090606D00B1012784F851B084F850A064
:100D7000384666E72DE9F84F044690F85000002702
:100D80000A9E1D4692468B464FF0010901280ED05F
:100D9000012084F85000FFF735FB804694F851009D
:100DA000616801280CD0B1F5827F07D102E00220F2
:100DB000BDE8F88FA16809B9042801D00227C2E074
:100DC000BBF1000F27D0BAF1000F24D01DB394F867
:100DD0005100042802D0052084F8510000206065ED
:100DE000C4F838A0E587A587C4F830B0E586A586A5
:100DF0002064606420680168490603D4016841F0FA
:100E000040010160E068B0F5006F606805D0E8B3AC
:100E1000012D46D07FE0012795E008B1012D39D1A1
:100E2000206B21680088C860206B801C2063E08EE6
:100E3000401EE0862EE02068816889070FD5E18E8C
:100E400069B1B9F1010F0AD1216B0988C160206B2A
:100E5000801C2063E08E401EE0864FF00009206871
:100E60008168C9070CD0E18F51B1C068A16B0880BF
:100E7000A06B801CA063E08F401EE0874FF001094B
:100E8000FFF7C0FAA0EB0800B04200E009E001D390
:100E9000701C50D1E08E0028CDD1E08F0028CAD13F
:100EA0003FE0206B216800780873206B401C2063B2
:100EB000E08E401EE0862EE02068816889070FD50D
:100EC000E18E69B1B9F1010F0AD1216B0978017383
:100ED000206B401C2063E08E401EE0864FF000092E
:100EE00020688168C9070CD0E18F51B1C068A16B3F
:100EF0000870A06B401CA063E08F401EE0874FF09D
:100F00000109FFF77FFAA0EB0800B04202D3701C82
:100F100001D010E07EB1E08E0028CDD1E08F002816
:100F2000CAD142463146204600F0ADF828B101272B
:100F30002020606507E0032705E0A06818B9206855
:100F4000C16880680090012084F85100002084F876
:100F5000500038462CE710B5401EB0F1807F01D319
:100F6000012010BD4FF0E02460610F21601700F0F8
:100F700020F90020A06107202061002010BDFEE7BD
:100F800030B585B00024184800940194029403946D
:100F9000816941F010018161816901F010010491C2
:100FA000816941F020018161816901F02001049192
:100FB000816941F00401816180690C4D00F00400F9
:100FC0000490002210212846FFF716FA1020009006
:100FD0000120CDE901040220039069462846FFF76D
:100FE0000FF905B030BD00000010024000100140B4
:100FF0000B480A494FF4007201604FF4827141605E
:1010000000218160C1600161C0E90512C161016216
:10101000416281620A21C162FFF7C0BC0030014019
:1010200010000020FEE770477047F8B5044640689E
:101030004FF48273984217D1A0684FF48065B0F5E1
:10104000004F01D0A8420FD12068066826F0400664
:1010500006606068984207D1A068A84204D1009257
:101060000B460022012103E000920B460022802162
:10107000204600F019F8002804D0606D40F02000F0
:1010800060650320F8BD38B50B4600920446002287
:10109000802100F009F8002804D0606D40F02000A5
:1010A0006065032038BD00002DE9F8431E469146D7
:1010B00088460446089DFFF7A5F9401B351AFFF73F
:1010C000A1F9074625480068C0F3CB30684338E0F3
:1010D000701C37D0FFF796F9C01BA84203D215B198
:1010E000009860B32CE02068416821F0E001416085
:1010F0006068B0F5827F0BD1A068B0F5004F02D0D8
:10110000B0F5806F04D12068016821F040010160D2
:10111000A06AB0F5005F09D12068016821F4005190
:1011200001602068016841F400510160012084F8E9
:101130005100002084F850000320BDE8F88300250A
:10114000401E00902068816838EA010004D0002128
:101150004945BDD10020F0E70121F9E70C0000204E
:101160007047FFF755B930B58FB028216846FFF7B3
:1011700004F814210AA8FFF700F8022501200490C2
:1011800000951020059000240004CDE90840079543
:101190006846FFF773FA0F200A90CDE90B540D94BF
:1011A00000210AA80E94FFF7B7F90FB030BD7047C1
:1011B000FEE70907090E002804DB00F1E02080F8B3
:1011C0000014704700F00F0000F1E02080F8141DBB
:1011D000704702E008C8121F08C1002AFAD1704700
:1011E0007047002001E001C1121F002AFBD17047A7
:1011F000FFF716F9FFF7B7FFFFF7C2FEFFF7F8FE9C
:101200003220FEF7D7FFFBE70000000000000000DF
:101210000102030406070809381200080000002034
:1012200010000000D2110008481200081000002031
:1012300058040000E2110008010000001000000046
:08124000000000000024F4008E
:0400000508000135B9
:00000001FF
