:020000040800F2
:10000000E0040020D5000008C10F0008090F000817
:1000100000000000000000000000000000000000E0
:10002000000000000000000000000000C50F0008F4
:100030000000000000000000C30F0008C70F000808
:10004000E7000008E7000008E7000008E7000008F4
:10005000E7000008E7000008E7000008E7000008E4
:10006000E7000008E7000008E7000008E7000008D4
:10007000E7000008E700000800000000E7000008B3
:1000800000000000E7000008000000000000000081
:10009000E700000800000000E7000008E700000893
:1000A000E7000008E7000008E7000008E700000894
:1000B000E7000008E7000008E7000008E700000884
:1000C0000348854600F08EF800480047CF1400082A
:1000D000E00400200448804704480047FEE7FEE7AC
:1000E000FEE7FEE7FEE7FEE749100008C100000852
:1000F00030B50B46014600202022012409E00D46C0
:10010000D5409D4205D31D469540491B2546954047
:1001100040191546521E002DF1DC30BDF0B51FB45C
:100120000646002082B005464024019100901BE065
:10013000019922460F46304600F042F8049A059B8A
:10014000801A994110D310461946224600F028F82B
:10015000361A8F410197224601200021009F00F0AE
:100160001FF838184D4100902046641E0028DFDC3F
:10017000019B00982946324607B0F0BDD2B201E09B
:100180000270401C491EFBD270470022F6E710B5F2
:1001900013460A4604461946FFF7F0FF204610BDF5
:1001A00010B5202A04DB0146203A9140002010BD02
:1001B000914020239C1A0346E3401943904010BD10
:1001C00010B5202A04DB0846203AD040002110BD9B
:1001D0000B46D340D0402024A21A91400843194630
:1001E00010BD0000064C0125064E05E0E36807CC73
:1001F0002B430C3C98471034B442F7D3FFF764FF0D
:100200000815000828150008FCB500230124A2E009
:1002100027462A469F403A406FD04D68012D05D0B1
:10022000022D03D0112D01D0122D16D18568032681
:10023000AC465D00AE46AE406546B543AC46CE68C2
:100240007546AE4065462E43866046680D79BE43CE
:10025000ED06ED0F9D4035434560C6685F00032500
:10026000BD40AE46AE4335468E68BE402E43C660A6
:100270004E68022E01D0122E14D1DE08B6003618B8
:100280000196366A5D07B446EE0E0F25B54000961E
:100290006646AE43B4460D69009EB54066462E43A1
:1002A000019D2E6206687546AE430D79AD07AD0F10
:1002B000BD40354305604D68ED004BD5294D6E6B53
:1002C00026436E639E08284DB6007519AC46AD688E
:1002D0009E07360F0F27B740BD4305273F07B8429B
:1002E00001D1002715E0214FB84201D1012710E0CC
:1002F0001F4FB84202D102270BE02BE01D4FB8423E
:1003000001D1032705E01C4FB84201D1052700E0C9
:100310000627B7402F436546AF60184D2E684F68DB
:100320009643FF0300D516432E606E684F689643D0
:10033000BF0300D516436E60AE684F689643FF0258
:1003400000D51643AE60EE684F689643BF0200D5F5
:100350001643EE605B1C0A681546DA4000D057E78A
:10036000FCBD0000001002400000014000040050ED
:1003700000080050000C0050001C00500004014018
:1003800001488068704700000000002070B50246F8
:1003900040325378202B1CD11378012B19D0012324
:1003A000137024245470046825689D4325600468F4
:1003B00025681E03B5432560046825680D43256044
:1003C00000680168194301602020507000201070FF
:1003D00070BD022070BD70B5024640325378202BAC
:1003E0001BD11378012B18D00124147024235370CF
:1003F00003681D68A5431D6005682B680F2636023B
:10040000B343090219432960006801682143016070
:10041000202050700020107070BD022070BD0000C0
:1004200070B5040006D025464035687800260028BF
:1004300002D005E0012070BD2E70204600F04AF881
:1004400024206870206801684908490001600F2174
:100450006068090688432168086121688A6801206C
:10046000C00382438A60E1680129A16808D0212283
:100470009202114322689160E168022902D005E0EE
:100480000143F7E701212268C902516021684A68E7
:100490000F4B1A434A602168CA688243CA60616987
:1004A00020690843A169090208432168C860216ADC
:1004B000E06908432168086020680168012211434F
:1004C00001606664202068702663AE70002070BDF5
:1004D0000080000210B586B0044614216846FFF77C
:1004E00054FE10492068884219D10F4CE16A02205D
:1004F0000143E162E16A01400591C02000901220B1
:10050000012101900320029104910390694607485C
:10051000FFF77AFEA06B012149050843A06306B0EE
:1005200010BD0000005400400010024000040050C4
:1005300002488168027889188160704700000020B5
:1005400010B508480024016840221143016020468C
:1005500000F00AF8002801D0012401E000F026F89C
:10056000204610BD0020024070B504460D4D7D2090
:100570002978C000FFF7BCFD01460B480068FFF773
:10058000B7FD00F045FC002809D1042C07D2002259
:100590002146401E00F016F800206C6070BD01205E
:1005A00070BD0000000000200C0000200448416BDA
:1005B000012211434163816B02041143816370473F
:1005C0000010024010B500F051FF10BDF8B5044610
:1005D0000068614D810601D400057DD55E4E00277F
:1005E000403EB06BC00004D4B06B31040843B0632C
:1005F00001275A480168C90511D4016882151143C1
:100600000160FFF7BDFE009005E0FFF7B9FE00991D
:10061000401A642844D851480068C005F5D53168AF
:1006200003200005626801401040884205D1032381
:10063000A0681B051840884208D09003800F03284B
:1006400004D13068800301D50120F8BD2869032159
:100650000904084029D00A40824202D0227892063A
:1006600006D4A2680A4082421FD0208800051CD50B
:1006700028692A6988430121C9040A432A612A6931
:100680008A432A612861C0050FD5FFF779FE0090E3
:1006900008E0FFF775FE0099411A3148814201D9FF
:1006A0000320F8BD28698005F3D561688803800FB1
:1006B000032805D132680005824301400A433260B5
:1006C0002869032261681204114008432861002F41
:1006D00006D0B16B012000E002E000078143B16366
:1006E0002078C00705D0E868E168800880000843EA
:1006F000E8602078800705D5E8680C2188432169E7
:100700000843E8602078400706D5E868032189029D
:10071000884361690843E8602078000706D5E868E7
:10072000032109038843A1690843E8602078400653
:1007300006D5E868012189068843216A0843E860F4
:100740002078000606D5E868032189048843E1691A
:100750000843E8600020F8BD4010024000700040EF
:1007600088130000F8B50E4605007DD05348006898
:10077000C007C00FB0420AD250480168490849007A
:10078000314301600068C007C00FB04271D12878C2
:100790004B4C800705D5E068F0218843A9680843E1
:1007A000E0602878C00752D06868022817D0032874
:1007B00018D02168012818D08905002959DAE16884
:1007C000890889000143E160FFF7DAFD696807469F
:1007D000022912D003291CD0012926D033E0216838
:1007E0008903EAE721688901E7E74907E5E7FFF7B9
:1007F000C7FDC11B3348814223D8E0680007800F42
:100800000228F4D123E0FFF7BBFDC11B2D48814234
:1008100017D8E0680007800F0328F4D117E0FFF72E
:10082000AFFDC11B274881420BD8E0680007800F4D
:100830000128F4D10BE0FFF7A3FDC11B2148814241
:1008400001D90320F8BDE0680007800FF3D11B48F1
:100850000168C907C90FB1420DD9016849084900AB
:1008600031430160006800E003E0C007C00FB04200
:1008700001D00120F8BD2878400706D5E06807219F
:1008800009028843E9680843E0602878000707D533
:10089000E0680721C90288432969C9000843E0606C
:1008A00000F036F8E168084A0906090F515CC840B3
:1008B000064908600020FFF757FEF8BD00200240FF
:1008C0000010024088130000E41400080C0000200F
:1008D000044805490068C968044A4905490F515C44
:1008E000C84070470C00002000100240FD140008B2
:1008F000044805490068C968044A8904490F515CE5
:10090000C84070470C00002000100240FD14000891
:1009100010B5184AD1680C20084004280BD00828CC
:1009200010D00C2810D050680004410F0120C003E3
:10093000491C884010BD1068C00601D50E4810BD86
:100940000E4810BD0E4810BD88020E4B000F185CFB
:100950000902D368890F491CDB0301D5084A05E069
:100960001268D20601D5044A00E0044A5043FFF75A
:10097000BFFB10BD0010024000093D000024F40040
:1009800000127A00F4140008FEB505007ED0FE4C7B
:10099000E7680C20E668074001200004064028783C
:1009A000C00747D0082F05D00C2F0AD10120000422
:1009B000864206D1206880033CD568680028E5D0CF
:1009C00038E0012069680004814203D121680143B5
:1009D000216011E0052301221B0492049942216841
:1009E00002D111432160F1E7814321602168014078
:1009F0000091206890432060686800280DD0FFF7C0
:100A0000BFFC009005E0FFF7BBFC0099401A64288A
:100A10007AD820688003F6D50CE0FFF7B1FC00908F
:100A200005E0FFF7ADFC0099401A6428F0D8206873
:100A30008003F6D42878800755D50923E868042F69
:100A40000DD00C2F01D1002E09D000283BD02168F9
:100A5000994301432160FFF793FC064627E0216894
:100A6000490701D5002891D061681F2212029143E5
:100A70002A69120211436160216899430143216090
:100A8000FFF746FFE16809060A0F00E0BBE1BF4936
:100A9000895CC840BE4908600020FFF765FD00285A
:100AA00072D120E0FFF76CFC801B0228B0D82068D0
:100AB0004007F7D560681F210902884329690902A8
:100AC000084360600FE02068400840002060FFF7A6
:100AD00057FC064604E0FFF753FC801B022897D81A
:100AE00020684007F7D42878C0065FD5002F0CD0C7
:100AF000E869002849D02068FF21013108432060BF
:100B0000FFF73EFC06462DE0E4E02068800502D5B4
:100B1000E8690028A7D06068072149038843696A0B
:100B2000084360606068298C0002000A09060843D7
:100B30006060686A410B0120C003491C8840E1687D
:100B400009060A0F9149895CC84091490860002054
:100B5000FFF70AFD002817D128E0FFF711FC801BE2
:100B60000228A3D820688005F7D5606807214903CB
:100B70008843696A084360606068298C0002000A43
:100B800009060843606011E023E12168FF2001307D
:100B900081432160FFF7F4FB064604E0FFF7F0FB1A
:100BA000801B02289BD820688005F7D42878794ECE
:100BB000000724D568690028306910D00121084356
:100BC0003061FFF7DDFB009005E0FFF7D9FB0099EE
:100BD000401A02287ED830698007F6D50FE0400819
:100BE00040003061FFF7CCFB009005E0FFF7C8FB49
:100BF0000099401A02286DD830698007F6D4287809
:100C0000400764D500200290A06BC00006D4A06B02
:100C1000012109070843A063012002905E48016892
:100C2000C90511D40168821511430160FFF7A8FBC3
:100C3000009005E0FFF7A4FB0099401A642849D80A
:100C400055480068C005F5D5FF20AA6801308242EA
:100C500003D131690143316111E001218902002A88
:100C600007D005231B029A4203D132690A4332613D
:100C7000EFE7326982433261306988433061A868A6
:100C800000280ED0FFF77CFB009006E0FFF778FB12
:100C90000099411A414881421CD830698005F5D538
:100CA0000DE0FFF76DFB009006E0FFF769FB009990
:100CB000411A3A4881420DD830698005F5D402982E
:100CC000002804D0A16B012000078143A16328788C
:100CD000800600E07CE02ED53148A9694314002944
:100CE00016D0A26801210A43A260626B0A436263C4
:100CF000016A19430162FFF743FB064604E0FFF770
:100D00003FFB801B022863D8A0688007F7D512E05C
:100D1000A16849084900A160016A99430162FFF78F
:100D20002FFB064604E0FFF72BFB801B02284FD861
:100D3000A0688007F7D4A86A002866D00C2F4DD091
:100D4000012636060228206805D0B0432060FFF750
:100D500017FB05463EE0B0432060FFF711FB074656
:100D600004E0FFF70DFBC01B022831D8206880018A
:100D7000F7D4296BE86AE2680843696BFD231B041A
:100D80009A43114308430DE000100240E4140008A8
:100D90000C0000204010024000700040881300004A
:100DA00000000140E060206830432060FFF7E8FA6F
:100DB000054604E0FFF7E4FA401B022808D8206843
:100DC0008001F7D521E0FFF7DBFA401B022801D9AB
:100DD0000320FEBD20688001F5D416E00128F8D07C
:100DE000E06801210904EA6A014091420BD10F2118
:100DF00089042A6B0140914205D1032189050840ED
:100E0000696B884201D00120FEBD0020FEBD0000BC
:100E1000094910B5401E884201D9012010BD074C78
:100E200060610321081F00F021FB0020A061072062
:100E30002061002010BD0000FFFFFF0000E000E087
:100E400010B5040003D0606F002802D007E0012035
:100E500010BD002170200155204600F027F8242005
:100E6000606720680168490849000160204600F079
:100E7000ABF90128ECD0606A002802D0204600F0CF
:100E80000DF9206841680922D2029143416020682F
:100E900081682A2291438160206801680122114300
:100EA0000160204600F060F910BD000010B586B06A
:100EB000044614216846FFF768F911492068884202
:100EC0001CD11048416B0122920311434163C16A56
:100ED00001221143C162C06A694610400590032097
:100EE0004002009002200190002002900320039015
:100EF0000420049005200007FFF786F906B010BD16
:100F00000038014000100240FEE7000008B50F481D
:100F1000C26A04210A43C262C26A0A400092C26ADB
:100F200080210A43C262C26A0A400092C16A012259
:100F30001143C162C16A11400091C26A02210A4391
:100F4000C262C06A0840009008BD00000010024064
:100F500010B50D480B4901600C49416000218160CA
:100F60000161416181610122C161C2600162FFF7DB
:100F700057FA00210448FFF709FA00210248FFF759
:100F80002AFA10BD0054004010000020BB7C700005
:100F900010B50A4808490160E12149024160002179
:100FA0008160C16001618161C1610C2201624261A5
:100FB0004162FFF745FF10BD003801405C00002092
:100FC00070477047704710B5FFF7B2FA10BD0000C8
:100FD00010B59CB038216846FFF7D7F8142117A840
:100FE000FFF7D3F824210EA8FFF7CFF815480168C2
:100FF0000322D2029143C214891801600120010426
:10100000009002200A90032080040C908801019136
:101010000D900B916846FFF7B7FC0F201790002446
:101020000320189019941A9401211B9417A8FFF714
:1010300099FB09200E90119414940EA8FFF7C6FA9C
:101040001CB010BD007000401048016882151143AB
:101050000160C1680E4A1140C16001680D4A11402B
:101060000160816849084900816001680122920499
:1010700091430160C168FD2212049143C1600021C7
:1010800001610549C00388607047000000100240FC
:101090000C40FF88F6FFF6FE00ED00E010B5818CF5
:1010A000C90707D001684A6801235B049A43836A31
:1010B0001A434A60818C890707D501684A68012371
:1010C0001B049A43C36A1A434A60818C490707D5B7
:1010D00001684A6801239B049A43036B1A434A60E0
:1010E000818C090707D501684A680123DB039A430D
:1010F000436B1A434A60818CC90607D50268916820
:1011000001231B039943836B19439160818C8906EA
:1011100007D501688A6801235B039A43C36B1A43AE
:101120008A60818C490612D503685A680121090535
:10113000046C8A4322435A60026C8A4207D10268D7
:10114000516803235B059943436C19435160818CBB
:10115000090607D501684A680123DB04806C9A43BD
:1011600002434A6010BD0000F8B500260446C66779
:10117000FFF706F9054620680068124F000709D5F9
:1011800001212B46002249052046009700F030F946
:1011900000280DD12068006840070BD501212B469F
:1011A000002289052046009700F022F9002801D08E
:1011B0000320F8BD20206067A067603426740020FB
:1011C000F8BD0000FFFFFF01F8B504462669A268DC
:1011D000E76932436669102000253E4323683243A5
:1011E00078491E68784F3E4016431E6023685A684F
:1011F00003263603B243E66832435A602368A26985
:101200008B4201D0266A32439E680B273F02BE43C1
:1012100016439E606D4E23686D4AB3420CD1D2686E
:101220009207920F06D0012A38D0022A34D0032A1E
:1012300020D11EE001201DE0664EB3420AD1D268E3
:101240000C26324026D0042A28D0082A24D00C2A82
:1012500010D10EE08B420DD1D668032292021640C7
:1012600018D001229202B61A18D0B61A14D096429B
:1012700000D10820564A0126403A574FF6038B42C8
:1012800036D100280CD002280DD0042812D008280E
:101290001FD11CE00020EDE70220EBE70420E9E786
:1012A000FFF716FB08E01068C00601D5384605E0D8
:1012B0004A4803E0FFF72CFB002873D06268510016
:1012C0005118814205D81103814202D303E0304610
:1012D000F4E7012566E0010E0602500800233018ED
:1012E0005941FEF71BFF03210902411A3C4A55E010
:1012F000E169B14232D1030000F0ABF809070A0DF1
:1013000006250606062B0600E3E7FFF7E1FA1CE0D8
:10131000FFF7EEFA19E010686168C00602D54808C8
:10132000304A01E0304A48088018FEF7E1FE80B2FA
:1013300001462E4A10399142CBD8511C014000077A
:10134000400F08432CE0FFF7E3FA616840004A08C9
:10135000EAE76168012248081204E5E7030000F0AB
:1013600078F809070A0D06260606062C0600B0E7DF
:10137000FFF7AEFA1DE0FFF7BBFA1AE010686168EC
:10138000C00602D54808C01902E014484A081018DF
:10139000FEF7AEFE80B20146144A1039914298D849
:1013A0002168C8600020206660662846F8BDFFF707
:1013B000AFFA61684A088018EAE76168480880194E
:1013C000E6E7000000480040F369FFEF0038014005
:1013D000401002400044004000093D000024F40099
:1013E000FFFC0F0000127A000048E801EFFF000048
:1013F000FFB581B017460E4604460A9D09E0681CF9
:1014000007D0FEF7BDFF0499401AA8420CD8002D62
:101410000AD02068C1693046884318D00020B842FD
:10142000EDD0002005B0F0BD20680168FF22A13298
:10143000914301602068816849084900816020204B
:101440006067A0670020603420740320EAE7012071
:10145000E5E730B47446641E2578641CAB4200D2C4
:101460001D46635D5B00E31830BC18478307FF220D
:10147000DB0E9A408907090E9940002808DB830893
:1014800009489B001B181868904308431860704770
:101490000007000F0838830804489B001B18D86910
:1014A00090430843D861704700E400E000ED00E09D
:1014B00002E008C8121F08C1002AFAD1704770471D
:1014C000002001E001C1121F002AFBD17047FFF785
:1014D00037F8FFF77DFDFFF719FDFFF739FDFFF73F
:1014E00057FDFEE7000000000000000001020304B9
:1014F00006070809030406080C1018203000000035
:10150000000102030400000028150008000000206C
:1015100010000000B014000838150008100000206A
:10152000D0040000C0140008010000000400000006
:08153000000000000000200093
:04000005080000C12E
:00000001FF
