:020000040800F2
:1000000080040020010100088F110008E31000089F
:100010008D1100086D010008BF13000800000000EA
:100020000000000000000000000000007513000840
:100030006F0100080000000091110008771300080C
:100040001B0100081B0100081B0100081B01000820
:100050001B0100081B0100081B0100081B01000810
:100060001B0100081B0100081B0100081B01000800
:100070001B0100081B0100081B0100081B010008F0
:100080001B0100081B0100081B0100081B010008E0
:100090001B0100081B0100081B0100081B010008D0
:1000A0001B0100081B0100081B0100081B010008C0
:1000B0001B0100081B0100081B0100081B010008B0
:1000C0001B0100081B0100081B0100089511000816
:1000D0001B0100081B0100081B0100081B01000890
:1000E0001B0100081B0100081B010008DFF80CD0F1
:1000F00000F02AF80048004701140008800400209E
:100100000648804706480047FEE7FEE7FEE7FEE7B1
:10011000FEE7FEE7FEE7FEE7FEE7FEE7BD130008A9
:10012000ED000008D2B201E000F8012B491EFBD21D
:1001300070470022F6E710B513460A4604461946F2
:10014000FFF7F0FF204610BD064C074D06E0E068C3
:1001500040F0010394E8070098471034AC42F6D30E
:10016000FFF7C8FF7014000890140008FEE77047FE
:1001700010B50E21012001F0DDF80421BDE810408A
:10018000022001F0D7B8000010B590F8211000242B
:10019000022903D00421816301243DE001680A683B
:1001A00022F00E020A6001680A6822F001020A6069
:1001B0001A4A0168914201D1012121E0174A143203
:1001C000914201D110211BE0144A2832914201D101
:1001D000891515E0114A3C32914201D189140FE092
:1001E0000E4A5032914202D14FF4803108E00B4A5E
:1001F0006432914202D14FF4801101E04FF08071DE
:10020000064A083A5160012180F82110002180F847
:100210002010416B01B18847204610BD0800024004
:100220002DE9F84FDFF8B891002409F1040A0AF12A
:10023000040B23460F270BF1040EC9E00125A5404E
:100240002A40AA427DD1674ED1F804C0ACEB060823
:10025000B44532D014DCBCF1030F3AD009DCBCF158
:10026000000F2AD0BCF1010F1CD0BCF1020F31D11C
:100270001DE0BCF1110F17D0BCF1120F2AD119E00B
:10028000B8F5881F19D006DCB8F5803F15D0B8F551
:10029000801F1FD111E0B8F5001F0ED0B8F5041F64
:1002A00018D10AE0CB6815E0CB681B1D12E0CB68C3
:1002B00008330FE0CB680C330CE08B682BB1012BBB
:1002C0004FF0080303D0456104E0042302E0056118
:1002D00000E00023FF2A01D8064601E000F10406F1
:1002E0004FEA840501D9A5F12005D6F8008007FA68
:1002F00005FC28EA0C0803FA05F548EA0508C6F8E3
:1003000000804D68ED0062D5374DAE6946F00106BC
:10031000AE61AD6924F0030605F001050095334D8B
:1003200006EB050CDCF80850A607360F07FA06F8AE
:1003300025EA0805DFF8B880404503D14FF00008F2
:1003400017E044E0DFF8AC80404502D14FF00108EF
:100350000FE0DFF8A480404502D14FF0020808E02A
:10036000DFF89880404502D14FF0030801E04FF0DC
:10037000040808FA06F848EA0508CCF808804D6831
:10038000D9F80060ED034D4601D5164300E09643D1
:100390002E604D68DAF80060AD03554601D516436E
:1003A00000E096432E604D68DBF80060ED025D468C
:1003B00001D5164300E096432E604D68DEF80060DC
:1003C000AD02754601D5164300E096432E60641CCD
:1003D0000D682A46E5407FF431AFBDE8F88F000094
:1003E0000004014000001110001002400000014014
:1003F00000080140000C01400010014000140140C1
:100400000AB1016170470904FBE7000001488068F8
:1004100070470000140000200248816802781144EF
:100420008160704714000020074810B5016841F052
:1004300010010160032000F075F8002000F006F8BC
:1004400000F024F8002010BD0020024070B50D4DD2
:1004500004464FF47A712878B1FBF0F00A49096834
:10046000B1FBF0F000F029FE48B9102C07D20022B1
:100470002146501E00F036F800206C6070BD01204F
:1004800070BD000014000020200000200C4808B5BA
:10049000816941F001018161816901F001010091EF
:1004A000C16941F08051C161C06900F08050009085
:1004B0000448416821F0E06141F00071416008BDED
:1004C0000010024000000140002809DB00F01F027C
:1004D000012191404009800000F1E020C0F80011A6
:1004E00070470000F0B40E4B1B680C46C3F30223A8
:1004F000C3F10705042D00D90425191D072901D2D0
:10050000002300E0DB1E012606FA05F1491E21400A
:1005100099409E40761E16403143F0BC00F050BF1B
:100520000CED00E0064900F0070208684FF6FF03F3
:10053000184040EA0220034A104308607047000058
:100540000CED00E00000FA052DE9F0470F4605002C
:1005500061D0434E306800F00700B84209D23068DD
:1005600020F0070038433060306800F00700B842E0
:1005700051D128683B4C810712D5400703D56068EC
:1005800040F4E06060602878000703D5606840F4BC
:10059000605060606068A96820F0F0000843606007
:1005A0002878C00728D06868012810D02168022860
:1005B00010D0890700292EDA616821F00301014378
:1005C0006160FFF723FF804641F288390DE0216822
:1005D0008903EFE78901EDE7FFF718FFA0EB0801BA
:1005E000494502D90320BDE8F0876068696800F0DA
:1005F0000C00B0EB810FEFD1306800F00700B8427B
:100600000BD9306820F0070038433060306800F0C4
:100610000700B84201D00120E5E72878400705D55A
:100620006068E96820F4E0600843606028780007AB
:1006300006D56068296920F4605040EAC100606016
:1006400000F018F86168084AC1F30311515CC84012
:100650000649086006480068FFF7F8FE0020C2E778
:10066000002002400010024060140008200000201A
:100670001800002012A185B00FC98DE80F0014A04A
:10068000144A006804905168134801F00C03042BCD
:1006900010D0082B0ED1C1F38343C9031DF803000A
:1006A0000AD5516804AAC1F34041515C0A4A50433B
:1006B000B0FBF1F005B0704708494843FAE7000085
:1006C00002030405060708090A0B0C0D0E0F101093
:1006D000010200000010024000127A0000093D00F3
:1006E0002DE9F84F040070D02078C04DC00749D0E4
:1006F0006868C0F38100012807D06868C0F38100F2
:10070000022809D16868C00306D52868800339D556
:1007100060680028E7D035E06068B0F5803F0BD016
:1007200010B1B0F5A02F11D0286820F480302860D7
:10073000286820F4802002E0286840F48030286097
:10074000606890B1FFF762FE06460AE0286840F450
:1007500080202860F0E700BFFFF758FE801B642868
:1007600073D828688003F7D50CE0FFF74FFE0646E4
:1007700005E000BFFFF74AFE801B6428F0D8286818
:100780008003F7D420789A4E80074FF001094FF08C
:10079000000839D5686810F00C0F07D06868C0F3FE
:1007A0008100022809D16868C00306D42868800740
:1007B00014D52069012808D110E02069B0B1C6F82D
:1007C0000090FFF723FE074605E00AE1FFF71EFE53
:1007D000C01B0228C4D828688007F7D5286861693B
:1007E00020F0F80040EAC10028600DE0C6F8008063
:1007F000FFF70CFE074604E0FFF708FEC01B0228C7
:1008000023D828688007F7D4207800072CD57948AA
:10081000A169D9B1C0F80090FFF7F8FD074604E0E0
:10082000FFF7F4FDC01B02280FD8686A8007F7D5D0
:1008300071484FF4FA510068B0FBF1F0009000BF2E
:100840000098411E0091FAD20EE080E0C0F80080CE
:10085000FFF7DCFD074604E0FFF7D8FDC01B0228C8
:1008600075D8686A8007F7D42078400760D5E869B2
:100870000027C00008D4E86940F08050E861E869CA
:10088000012700F0805000905C480168C90513D42E
:100890000168834641F480710160FFF7B7FD82462D
:1008A00006E000BFFFF7B2FDA0EB0A0064284ED8B7
:1008B000DBF80000C005F5D5E06801280AD008B1D2
:1008C000052813D0286A20F001002862286A20F049
:1008D000040002E0286A40F001002862E06841F26A
:1008E000883B98B1FFF792FD82460BE0286A40F002
:1008F00004002862EEE700BFFFF788FDA0EB0A01C5
:1009000059455AD8286A8007F6D50CE0FFF77EFDD6
:10091000824605E0FFF77AFDA0EB0A0159454CD865
:10092000286A8007F6D41FB1E86920F08050E8619A
:10093000E06988B36968C1F38101022944D00228C3
:10094000C6F8608004D0FFF761FD044638E034E06B
:10095000FFF75CFD074604E0FFF758FDC01B0228C7
:100960002BD828688001F7D4206AB0F5803F05D1E4
:100970006868A16820F4003008436860D4E9080181
:100980000843696821F4741108436860C6F86090F0
:10099000FFF73CFD044606E025E000BFFFF736FD0B
:1009A000001B022809D828688001F7D51BE000BF8A
:1009B000FFF72CFD001B022802D90320BDE8F88FA9
:1009C00028688001F4D40EE00128F7D06868226A14
:1009D00000F48031914204D1616A00F470108842C1
:1009E00001D00120EAE70020E8E700000010024003
:1009F000000042428004424220000020007000407B
:100A00007047000038B50446006842688168C943F1
:100A10004B0606D5CB0704D1D3435B0601D4216C2A
:100A200005E08B0708D4D3431B0605D4616C01B0E5
:100A30002046BDE8304008478B0601D54B0646D41A
:100A4000D3439B0643D44B060AD494F85130032B6E
:100A50003ED0636D43F004036365C368836800930D
:100A6000890609D4616D41F00101616581680091D9
:100A7000016821F040010160606D002827D02068E6
:100A8000416821F0E0014160012084F851009007A5
:100A900022D02068416821F003014160104DE06CD4
:100AA00040B14563E06CFFF76FFB18B1606D40F03B
:100AB00040006065A06C002809D04563A06CFFF77A
:100AC00063FB002803D0606D40F04000606538BDD6
:100AD000C1688068009038BD2046FFF791FF38BD9F
:100AE000A111000870B5040009D0606A002540B16A
:100AF00025616561A56294F8510040B10CE00120C8
:100B000070BD6068B0F5827FF4D0E561F2E784F8EB
:100B10005050204600F040F8022084F85100206830
:100B2000016821F040010160A088218900F48270F1
:100B300001F404410843A18901F400610843217CC8
:100B400001F002010843217D01F001010843218BDE
:100B500001F400710843217F01F03801084394F843
:100B6000201001F080010843218D01F40051084359
:100B700021680860A069042101EA104021684860EA
:100B80002068C16921F40061C1616565012084F8B4
:100B90005100002070BD000030B585B000240094E5
:100BA0000194029403940068184988422BD1184894
:100BB000816941F480518161816901F4805104911E
:100BC000816941F0040181618069124D00F00400E7
:100BD0000490A02000900220019003200390694619
:100BE0002846FFF71DFB4020CDE900046946284652
:100BF0000294FFF715FB002211462320FFF772FC39
:100C00002320FFF761FC05B030BD0000003001403B
:100C100000100240000801402DE9F84F04464068EA
:100C20000025984616460F464FF0040BB0F5827F1C
:100C300001D1A06888B194F85000012818D0012093
:100C400084F85000FFF7E2FB814694F851004FF022
:100C5000000A01280ED0022582E084F851B0134624
:100C60000A462046CDF8008000F036F9BDE8F88F3E
:100C70000220FBE7002F72D0002E70D084F851B014
:100C8000C4F854A0A763A687E687C4F830A0A4F8E8
:100C900034A0A4F836A0C4F840A0C4F844A0A068CA
:100CA000B0F5004F09D12068016821F040010160D2
:100CB0002068016821F480410160206801684906CC
:100CC00003D4016841F040010160E068D8B139E027
:100CD00020688168C90709D0007BA16B0870A06BF0
:100CE000401CA063E08F401EE0870CE0FFF78EFB06
:100CF000A0EB0901414503D3B8F1FF3F03D036E033
:100D0000B8F1000F33D0E08F0028E1D11DE020685A
:100D10008168C90709D0C068A16B0880A06B801CDE
:100D2000A063E08F401EE0870CE0FFF76FFBA0EBB5
:100D30000901414503D3B8F1FF3F03D017E0B8F1F3
:100D4000000F14D0E08F0028E1D14A4641462046EA
:100D500000F02EFA08B120206065606D00B1012519
:100D6000012084F8510084F850A028467EE703252E
:100D7000F6E72DE9F84F044690F8500000271D468D
:100D80001646894601280DD04FF0010B84F850B06B
:100D9000FFF73CFB804694F85100BA46012804D086
:100DA000022793E00220BDE8F88FB9F1000F73D05D
:100DB000002E71D0032084F85100C4F854A0C4F868
:100DC0003090A686E686C4F838A0A4F83CA0A4F823
:100DD0003EA0C4F844A0C4F840A0A068B0F5004FFD
:100DE00009D12068016821F0400101602068016894
:100DF00041F48041016020680168490603D401681C
:100E000041F040010160E068B0F5006F606803D018
:100E100030B3012E24D041E008B1012E1CD1206B4B
:100E200021680088C86006E020688168890709D5C4
:100E3000216B0988C160206B801C2063E08E401EFE
:100E4000E08609E0FFF7E2FAA0EB0800A84202D32F
:100E5000681C01D031E07DB3E08E0028E4D120E0B1
:100E6000206B21680078087306E020688168890794
:100E700009D5216B09780173206B401C2063E08E3B
:100E8000401EE0860AE0FFF7C1FAA0EB0800A84286
:100E900003D3681C02D010E017E06DB1E08E00288B
:100EA000E3D142462946204600F0B0F908B120209F
:100EB0006065A06818B106E0FFE7032706E0206838
:100EC000C16880680090606D00B1012784F851B05E
:100ED00084F850A0384666E72DE9F84F044690F8AC
:100EE000500000270A9E1D4692468B464FF001098E
:100EF00001280ED0012084F85000FFF787FA8046C1
:100F000094F85100616801280CD0B1F5827F07D1B7
:100F100002E00220BDE8F88FA16809B9042801D0D9
:100F20000227C2E0BBF1000F27D0BAF1000F24D096
:100F30001DB394F85100042802D0052084F8510014
:100F400000206065C4F838A0E587A587C4F830B0F4
:100F5000E586A5862064606420680168490603D49C
:100F6000016841F040010160E068B0F5006F606821
:100F700005D0E8B3012D46D07FE0012795E008B108
:100F8000012D39D1206B21680088C860206B801C3E
:100F90002063E08E401EE0862EE02068816889078D
:100FA0000FD5E18E69B1B9F1010F0AD1216B098822
:100FB000C160206B801C2063E08E401EE0864FF0F5
:100FC000000920688168C9070CD0E18F51B1C06861
:100FD000A16B0880A06B801CA063E08F401EE0879F
:100FE0004FF00109FFF712FAA0EB0800B04200E051
:100FF00009E001D3701C50D1E08E0028CDD1E08FE4
:101000000028CAD13FE0206B216800780873206B6C
:10101000401C2063E08E401EE0862EE02068816840
:1010200089070FD5E18E69B1B9F1010F0AD1216BA2
:1010300009780173206B401C2063E08E401EE0861F
:101040004FF0000920688168C9070CD0E18F51B1C9
:10105000C068A16B0870A06B401CA063E08F401EAD
:10106000E0874FF00109FFF7D1F9A0EB0800B0428B
:1010700002D3701C01D010E07EB1E08E0028CDD1EB
:10108000E08F0028CAD142463146204600F0BEF823
:1010900028B101272020606507E0032705E0A0684C
:1010A00018B92068C16880680090012084F8510058
:1010B000002084F8500038462CE710B5401EB0F1EF
:1010C000807F01D3012010BD4FF0E02460610F212B
:1010D000601700F075F90020A06107202061002052
:1010E00010BDFEE710B586B0002000900190029080
:1010F00003901648816941F010018161816901F016
:1011000010010491816941F020018161816901F040
:1011100020010491816941F00401816180690C4CD6
:1011200000F004000490012206212046FFF768F930
:1011300006200121CDE900010220CDE90210694617
:101140002046FFF76DF806B010BD00000010024009
:10115000000801400C480B49012201604FF48271E4
:10116000416000218160C160C0E9041252028261C5
:101170002822C0E90721416281620A21C162FFF78A
:10118000B1BC00000030014024000020FEE77047A1
:10119000704700000148FFF735BC00002400002024
:1011A00010B5406A0021C187C186FFF729FC10BD38
:1011B000F8B5044640684FF48273984217D1A0688E
:1011C0004FF48065B0F5004F01D0A8420FD12068E0
:1011D000066826F0400606606068984207D1A0685D
:1011E000A84204D100920B460022012103E00092A4
:1011F0000B4600228021204600F040F8002804D051
:10120000606D40F0200060650320F8BD38B50B46E6
:10121000009204460022802100F030F8002804D01B
:10122000606D40F020006065032038BD31B5104D81
:101230009DF80000002240F040008DF800000221DF
:101240002846FFF7DDF86423042269460948FFF7C2
:1012500090FD094C6423052206486168FFF7DCFC19
:10126000012202212846FFF7CBF8606838BD000054
:101270000008014024000020000000202DE9F84370
:101280001E46914688460446089DFFF7BFF8401B5E
:10129000351AFFF7BBF8074625480068C0F3CB3086
:1012A000684338E0701C37D0FFF7B0F8C01BA84285
:1012B00003D215B1009860B32CE02068416821F09A
:1012C000E00141606068B0F5827F0BD1A068B0F5A5
:1012D000004F02D0B0F5806F04D12068016821F082
:1012E00040010160A06AB0F5005F09D12068016883
:1012F00021F4005101602068016841F4005101604F
:10130000012084F85100002084F850000320BDE83B
:10131000F8830025401E00902068816838EA0100AB
:1013200004D000214945BDD10020F0E70121F9E7B3
:101330002000002010B50C490C4C087000204870AB
:101340008870C870024602212046FFF759F86423CE
:10135000042205490648FFF70CFD20460122BDE89E
:1013600010400221FFF74CB80000002000080140A7
:10137000240000207047FFF74FB810B590B0282127
:101380006846FEF7D6FE14210AA8FEF7D2FE022018
:1013900000900120049010200024059007946846D6
:1013A000FFF79EF90F20CDE90A040C940D9400215B
:1013B0000AA80E94FFF7C8F810B010BD7047FEE7FA
:1013C0000907090E002804DB00F1E02080F8001472
:1013D000704700F00F0000F1E02080F8141D704706
:1013E00002E008C8121F08C1002AFAD170477047EE
:1013F000002001E001C1121F002AFBD1704700004C
:10140000FFF712F8FFF7B9FFFFF76CFEFFF7A2FE38
:10141000104D114E114C4AF6805700BFFEF7A8FE42
:1014200029460120FFF786FF31460220FFF782FFA1
:1014300039460320FFF77EFF0520FFF7F7FEA06087
:101440000120FFF7F3FEE0600220FFF7EFFE2061CE
:10145000E4E70000FEFFFF0006F0FF0000000020B0
:101460000000000000000000010203040607080954
:10147000901400080000002024000000E013000881
:10148000B4140008240000205C040000F0130008DD
:10149000000000000000000000000000000000004C
:1014A000000000000100000010000000000000002B
:0414B0000024F40020
:04000005080000ED02
:00000001FF
